{
  "transactions": [
    {
      "hash": "0x85ee07f93fb950632f3da368f4a5248518c8d027d25ca80861d31e4ae4ebf489",
      "transactionType": "CREATE",
      "contractName": "TestToken",
      "contractAddress": "0x978ffd85e86738572c5832fcb66f5cc191ddbe14",
      "function": null,
      "arguments": [
        "TokenA",
        "TKA"
      ],
      "transaction": {
        "from": "0xe909105ad23e37b851099d1df09a28fe31624108",
        "gas": "0xb5a9f",
        "value": "0x0",
        "input": "0x608060405234801561000f575f80fd5b50604051610ba5380380610ba583398101604081905261002e9161026d565b8181600361003c8382610356565b5060046100498282610356565b5050506100663369d3c21bcecceda100000061006d60201b60201c565b5050610435565b6001600160a01b03821661009b5760405163ec442f0560e01b81525f60048201526024015b60405180910390fd5b6100a65f83836100aa565b5050565b6001600160a01b0383166100d4578060025f8282546100c99190610410565b909155506101449050565b6001600160a01b0383165f90815260208190526040902054818110156101265760405163391434e360e21b81526001600160a01b03851660048201526024810182905260448101839052606401610092565b6001600160a01b0384165f9081526020819052604090209082900390555b6001600160a01b0382166101605760028054829003905561017e565b6001600160a01b0382165f9081526020819052604090208054820190555b816001600160a01b0316836001600160a01b03167fddf252ad1be2c89b69c2b068fc378daa952ba7f163c4a11628f55a4df523b3ef836040516101c391815260200190565b60405180910390a3505050565b634e487b7160e01b5f52604160045260245ffd5b5f82601f8301126101f3575f80fd5b81516001600160401b0381111561020c5761020c6101d0565b604051601f8201601f19908116603f011681016001600160401b038111828210171561023a5761023a6101d0565b604052818152838201602001851015610251575f80fd5b8160208501602083015e5f918101602001919091529392505050565b5f806040838503121561027e575f80fd5b82516001600160401b03811115610293575f80fd5b61029f858286016101e4565b602085015190935090506001600160401b038111156102bc575f80fd5b6102c8858286016101e4565b9150509250929050565b600181811c908216806102e657607f821691505b60208210810361030457634e487b7160e01b5f52602260045260245ffd5b50919050565b601f82111561035157805f5260205f20601f840160051c8101602085101561032f5750805b601f840160051c820191505b8181101561034e575f815560010161033b565b50505b505050565b81516001600160401b0381111561036f5761036f6101d0565b6103838161037d84546102d2565b8461030a565b6020601f8211600181146103b5575f831561039e5750848201515b5f19600385901b1c1916600184901b17845561034e565b5f84815260208120601f198516915b828110156103e457878501518255602094850194600190920191016103c4565b508482101561040157868401515f19600387901b60f8161c191681555b50505050600190811b01905550565b8082018082111561042f57634e487b7160e01b5f52601160045260245ffd5b92915050565b610763806104425f395ff3fe608060405234801561000f575f80fd5b50600436106100b9575f3560e01c806340c10f191161007257806395d89b411161005857806395d89b411461016f578063a9059cbb14610177578063dd62ed3e1461018a575f80fd5b806340c10f191461013257806370a0823114610147575f80fd5b806318160ddd116100a257806318160ddd146100fe57806323b872dd14610110578063313ce56714610123575f80fd5b806306fdde03146100bd578063095ea7b3146100db575b5f80fd5b6100c56101c2565b6040516100d291906105d3565b60405180910390f35b6100ee6100e9366004610623565b610252565b60405190151581526020016100d2565b6002545b6040519081526020016100d2565b6100ee61011e36600461064b565b61026b565b604051601281526020016100d2565b610145610140366004610623565b61028e565b005b610102610155366004610685565b6001600160a01b03165f9081526020819052604090205490565b6100c561029c565b6100ee610185366004610623565b6102ab565b6101026101983660046106a5565b6001600160a01b039182165f90815260016020908152604080832093909416825291909152205490565b6060600380546101d1906106d6565b80601f01602080910402602001604051908101604052809291908181526020018280546101fd906106d6565b80156102485780601f1061021f57610100808354040283529160200191610248565b820191905f5260205f20905b81548152906001019060200180831161022b57829003601f168201915b5050505050905090565b5f3361025f8185856102b8565b60019150505b92915050565b5f336102788582856102ca565b61028385858561034a565b506001949350505050565b61029882826103a7565b5050565b6060600480546101d1906106d6565b5f3361025f81858561034a565b6102c583838360016103db565b505050565b6001600160a01b038381165f908152600160209081526040808320938616835292905220545f198114610344578181101561033657604051637dc7a0d960e11b81526001600160a01b038416600482015260248101829052604481018390526064015b60405180910390fd5b61034484848484035f6103db565b50505050565b6001600160a01b03831661037357604051634b637e8f60e11b81525f600482015260240161032d565b6001600160a01b03821661039c5760405163ec442f0560e01b81525f600482015260240161032d565b6102c58383836104ad565b6001600160a01b0382166103d05760405163ec442f0560e01b81525f600482015260240161032d565b6102985f83836104ad565b6001600160a01b0384166104045760405163e602df0560e01b81525f600482015260240161032d565b6001600160a01b03831661042d57604051634a1406b160e11b81525f600482015260240161032d565b6001600160a01b038085165f908152600160209081526040808320938716835292905220829055801561034457826001600160a01b0316846001600160a01b03167f8c5be1e5ebec7d5bd14f71427d1e84f3dd0314c0f7b2291e5b200ac8c7c3b9258460405161049f91815260200190565b60405180910390a350505050565b6001600160a01b0383166104d7578060025f8282546104cc919061070e565b909155506105479050565b6001600160a01b0383165f90815260208190526040902054818110156105295760405163391434e360e21b81526001600160a01b0385166004820152602481018290526044810183905260640161032d565b6001600160a01b0384165f9081526020819052604090209082900390555b6001600160a01b03821661056357600280548290039055610581565b6001600160a01b0382165f9081526020819052604090208054820190555b816001600160a01b0316836001600160a01b03167fddf252ad1be2c89b69c2b068fc378daa952ba7f163c4a11628f55a4df523b3ef836040516105c691815260200190565b60405180910390a3505050565b602081525f82518060208401528060208501604085015e5f604082850101526040601f19601f83011684010191505092915050565b80356001600160a01b038116811461061e575f80fd5b919050565b5f8060408385031215610634575f80fd5b61063d83610608565b946020939093013593505050565b5f805f6060848603121561065d575f80fd5b61066684610608565b925061067460208501610608565b929592945050506040919091013590565b5f60208284031215610695575f80fd5b61069e82610608565b9392505050565b5f80604083850312156106b6575f80fd5b6106bf83610608565b91506106cd60208401610608565b90509250929050565b600181811c908216806106ea57607f821691505b60208210810361070857634e487b7160e01b5f52602260045260245ffd5b50919050565b8082018082111561026557634e487b7160e01b5f52601160045260245ffdfea2646970667358221220ec06fb0c47413fd425b663292097237f2ae3e238ecf606085153eed0f3cc80c964736f6c634300081a0033000000000000000000000000000000000000000000000000000000000000004000000000000000000000000000000000000000000000000000000000000000800000000000000000000000000000000000000000000000000000000000000006546f6b656e4100000000000000000000000000000000000000000000000000000000000000000000000000000000000000000000000000000000000000000003544b410000000000000000000000000000000000000000000000000000000000",
        "nonce": "0xde",
        "chainId": "0xaa36a7"
      },
      "additionalContracts": [],
      "isFixedGasLimit": false
    },
    {
      "hash": "0x87c4183174395e90f14a9db74906f7f47539f4c5056c3e144eac89f5ca7dc291",
      "transactionType": "CREATE",
      "contractName": "TestToken",
      "contractAddress": "0xfa886d60e1a7cb73923af9281a87073d1235f4bf",
      "function": null,
      "arguments": [
        "TokenB",
        "TKB"
      ],
      "transaction": {
        "from": "0xe909105ad23e37b851099d1df09a28fe31624108",
        "gas": "0xb5a9f",
        "value": "0x0",
        "input": "0x608060405234801561000f575f80fd5b50604051610ba5380380610ba583398101604081905261002e9161026d565b8181600361003c8382610356565b5060046100498282610356565b5050506100663369d3c21bcecceda100000061006d60201b60201c565b5050610435565b6001600160a01b03821661009b5760405163ec442f0560e01b81525f60048201526024015b60405180910390fd5b6100a65f83836100aa565b5050565b6001600160a01b0383166100d4578060025f8282546100c99190610410565b909155506101449050565b6001600160a01b0383165f90815260208190526040902054818110156101265760405163391434e360e21b81526001600160a01b03851660048201526024810182905260448101839052606401610092565b6001600160a01b0384165f9081526020819052604090209082900390555b6001600160a01b0382166101605760028054829003905561017e565b6001600160a01b0382165f9081526020819052604090208054820190555b816001600160a01b0316836001600160a01b03167fddf252ad1be2c89b69c2b068fc378daa952ba7f163c4a11628f55a4df523b3ef836040516101c391815260200190565b60405180910390a3505050565b634e487b7160e01b5f52604160045260245ffd5b5f82601f8301126101f3575f80fd5b81516001600160401b0381111561020c5761020c6101d0565b604051601f8201601f19908116603f011681016001600160401b038111828210171561023a5761023a6101d0565b604052818152838201602001851015610251575f80fd5b8160208501602083015e5f918101602001919091529392505050565b5f806040838503121561027e575f80fd5b82516001600160401b03811115610293575f80fd5b61029f858286016101e4565b602085015190935090506001600160401b038111156102bc575f80fd5b6102c8858286016101e4565b9150509250929050565b600181811c908216806102e657607f821691505b60208210810361030457634e487b7160e01b5f52602260045260245ffd5b50919050565b601f82111561035157805f5260205f20601f840160051c8101602085101561032f5750805b601f840160051c820191505b8181101561034e575f815560010161033b565b50505b505050565b81516001600160401b0381111561036f5761036f6101d0565b6103838161037d84546102d2565b8461030a565b6020601f8211600181146103b5575f831561039e5750848201515b5f19600385901b1c1916600184901b17845561034e565b5f84815260208120601f198516915b828110156103e457878501518255602094850194600190920191016103c4565b508482101561040157868401515f19600387901b60f8161c191681555b50505050600190811b01905550565b8082018082111561042f57634e487b7160e01b5f52601160045260245ffd5b92915050565b610763806104425f395ff3fe608060405234801561000f575f80fd5b50600436106100b9575f3560e01c806340c10f191161007257806395d89b411161005857806395d89b411461016f578063a9059cbb14610177578063dd62ed3e1461018a575f80fd5b806340c10f191461013257806370a0823114610147575f80fd5b806318160ddd116100a257806318160ddd146100fe57806323b872dd14610110578063313ce56714610123575f80fd5b806306fdde03146100bd578063095ea7b3146100db575b5f80fd5b6100c56101c2565b6040516100d291906105d3565b60405180910390f35b6100ee6100e9366004610623565b610252565b60405190151581526020016100d2565b6002545b6040519081526020016100d2565b6100ee61011e36600461064b565b61026b565b604051601281526020016100d2565b610145610140366004610623565b61028e565b005b610102610155366004610685565b6001600160a01b03165f9081526020819052604090205490565b6100c561029c565b6100ee610185366004610623565b6102ab565b6101026101983660046106a5565b6001600160a01b039182165f90815260016020908152604080832093909416825291909152205490565b6060600380546101d1906106d6565b80601f01602080910402602001604051908101604052809291908181526020018280546101fd906106d6565b80156102485780601f1061021f57610100808354040283529160200191610248565b820191905f5260205f20905b81548152906001019060200180831161022b57829003601f168201915b5050505050905090565b5f3361025f8185856102b8565b60019150505b92915050565b5f336102788582856102ca565b61028385858561034a565b506001949350505050565b61029882826103a7565b5050565b6060600480546101d1906106d6565b5f3361025f81858561034a565b6102c583838360016103db565b505050565b6001600160a01b038381165f908152600160209081526040808320938616835292905220545f198114610344578181101561033657604051637dc7a0d960e11b81526001600160a01b038416600482015260248101829052604481018390526064015b60405180910390fd5b61034484848484035f6103db565b50505050565b6001600160a01b03831661037357604051634b637e8f60e11b81525f600482015260240161032d565b6001600160a01b03821661039c5760405163ec442f0560e01b81525f600482015260240161032d565b6102c58383836104ad565b6001600160a01b0382166103d05760405163ec442f0560e01b81525f600482015260240161032d565b6102985f83836104ad565b6001600160a01b0384166104045760405163e602df0560e01b81525f600482015260240161032d565b6001600160a01b03831661042d57604051634a1406b160e11b81525f600482015260240161032d565b6001600160a01b038085165f908152600160209081526040808320938716835292905220829055801561034457826001600160a01b0316846001600160a01b03167f8c5be1e5ebec7d5bd14f71427d1e84f3dd0314c0f7b2291e5b200ac8c7c3b9258460405161049f91815260200190565b60405180910390a350505050565b6001600160a01b0383166104d7578060025f8282546104cc919061070e565b909155506105479050565b6001600160a01b0383165f90815260208190526040902054818110156105295760405163391434e360e21b81526001600160a01b0385166004820152602481018290526044810183905260640161032d565b6001600160a01b0384165f9081526020819052604090209082900390555b6001600160a01b03821661056357600280548290039055610581565b6001600160a01b0382165f9081526020819052604090208054820190555b816001600160a01b0316836001600160a01b03167fddf252ad1be2c89b69c2b068fc378daa952ba7f163c4a11628f55a4df523b3ef836040516105c691815260200190565b60405180910390a3505050565b602081525f82518060208401528060208501604085015e5f604082850101526040601f19601f83011684010191505092915050565b80356001600160a01b038116811461061e575f80fd5b919050565b5f8060408385031215610634575f80fd5b61063d83610608565b946020939093013593505050565b5f805f6060848603121561065d575f80fd5b61066684610608565b925061067460208501610608565b929592945050506040919091013590565b5f60208284031215610695575f80fd5b61069e82610608565b9392505050565b5f80604083850312156106b6575f80fd5b6106bf83610608565b91506106cd60208401610608565b90509250929050565b600181811c908216806106ea57607f821691505b60208210810361070857634e487b7160e01b5f52602260045260245ffd5b50919050565b8082018082111561026557634e487b7160e01b5f52601160045260245ffdfea2646970667358221220ec06fb0c47413fd425b663292097237f2ae3e238ecf606085153eed0f3cc80c964736f6c634300081a0033000000000000000000000000000000000000000000000000000000000000004000000000000000000000000000000000000000000000000000000000000000800000000000000000000000000000000000000000000000000000000000000006546f6b656e4200000000000000000000000000000000000000000000000000000000000000000000000000000000000000000000000000000000000000000003544b420000000000000000000000000000000000000000000000000000000000",
        "nonce": "0xdf",
        "chainId": "0xaa36a7"
      },
      "additionalContracts": [],
      "isFixedGasLimit": false
    },
    {
      "hash": "0xc4b9ed229a60469e2c8345bda3e6040dd1ed33d230c3c9be84e441bc05b7d016",
      "transactionType": "CALL",
      "contractName": "TestToken",
      "contractAddress": "0x978ffd85e86738572c5832fcb66f5cc191ddbe14",
      "function": "mint(address,uint256)",
      "arguments": [
        "0xE909105aD23e37b851099d1dF09A28Fe31624108",
        "100000000000000000000"
      ],
      "transaction": {
        "from": "0xe909105ad23e37b851099d1df09a28fe31624108",
        "to": "0x978ffd85e86738572c5832fcb66f5cc191ddbe14",
        "gas": "0xc3ab",
        "value": "0x0",
        "input": "0x40c10f19000000000000000000000000e909105ad23e37b851099d1df09a28fe316241080000000000000000000000000000000000000000000000056bc75e2d63100000",
        "nonce": "0xe0",
        "chainId": "0xaa36a7"
      },
      "additionalContracts": [],
      "isFixedGasLimit": false
    },
    {
      "hash": "0x2fcb47013834c2d023056b199de0756e6bffb42559d59d12cb9071ba37e130a6",
      "transactionType": "CALL",
      "contractName": "TestToken",
      "contractAddress": "0xfa886d60e1a7cb73923af9281a87073d1235f4bf",
      "function": "mint(address,uint256)",
      "arguments": [
        "0xE909105aD23e37b851099d1dF09A28Fe31624108",
        "100000000000000000000"
      ],
      "transaction": {
        "from": "0xe909105ad23e37b851099d1df09a28fe31624108",
        "to": "0xfa886d60e1a7cb73923af9281a87073d1235f4bf",
        "gas": "0xc3ab",
        "value": "0x0",
        "input": "0x40c10f19000000000000000000000000e909105ad23e37b851099d1df09a28fe316241080000000000000000000000000000000000000000000000056bc75e2d63100000",
        "nonce": "0xe1",
        "chainId": "0xaa36a7"
      },
      "additionalContracts": [],
      "isFixedGasLimit": false
    },
    {
      "hash": "0xe37c7c44009355aa8811e104d5f282b3736b8783e53f76365ca99a6da2d24a3f",
      "transactionType": "CALL",
      "contractName": "TestToken",
      "contractAddress": "0x978ffd85e86738572c5832fcb66f5cc191ddbe14",
      "function": "approve(address,uint256)",
      "arguments": [
        "0xE03A1074c86CFeDd5C142C4F04F1a1536e203543",
        "115792089237316195423570985008687907853269984665640564039457584007913129639935"
      ],
      "transaction": {
        "from": "0xe909105ad23e37b851099d1df09a28fe31624108",
        "to": "0x978ffd85e86738572c5832fcb66f5cc191ddbe14",
        "gas": "0xfbfa",
        "value": "0x0",
        "input": "0x095ea7b3000000000000000000000000e03a1074c86cfedd5c142c4f04f1a1536e203543ffffffffffffffffffffffffffffffffffffffffffffffffffffffffffffffff",
        "nonce": "0xe2",
        "chainId": "0xaa36a7"
      },
      "additionalContracts": [],
      "isFixedGasLimit": false
    },
    {
      "hash": "0x5d032ed4fbbded7cfe8d51dfd9c54a96a3b292fed5f6903b0e38fd49148aba3d",
      "transactionType": "CALL",
      "contractName": "TestToken",
      "contractAddress": "0xfa886d60e1a7cb73923af9281a87073d1235f4bf",
      "function": "approve(address,uint256)",
      "arguments": [
        "0xE03A1074c86CFeDd5C142C4F04F1a1536e203543",
        "115792089237316195423570985008687907853269984665640564039457584007913129639935"
      ],
      "transaction": {
        "from": "0xe909105ad23e37b851099d1df09a28fe31624108",
        "to": "0xfa886d60e1a7cb73923af9281a87073d1235f4bf",
        "gas": "0xfbfa",
        "value": "0x0",
        "input": "0x095ea7b3000000000000000000000000e03a1074c86cfedd5c142c4f04f1a1536e203543ffffffffffffffffffffffffffffffffffffffffffffffffffffffffffffffff",
        "nonce": "0xe3",
        "chainId": "0xaa36a7"
      },
      "additionalContracts": [],
      "isFixedGasLimit": false
    },
    {
      "hash": "0xbe48f5901e30cfc76d63716f00dac5f519f7cfe050ee59e9c006e6adab8d56da",
      "transactionType": "CALL",
      "contractName": null,
      "contractAddress": "0xe03a1074c86cfedd5c142c4f04f1a1536e203543",
      "function": "initialize((address,address,uint24,int24,address),uint160)",
      "arguments": [
        "(0x978FFD85e86738572c5832fCb66F5cc191ddBe14, 0xFa886D60E1a7cB73923af9281a87073d1235f4bF, 8388608, 60, 0x1387bb54fb1f85f4B99b637F9ec36ca645D87888)",
        "79228162514264337593543950336"
      ],
      "transaction": {
        "from": "0xe909105ad23e37b851099d1df09a28fe31624108",
        "to": "0xe03a1074c86cfedd5c142c4f04f1a1536e203543",
        "gas": "0xcd56b",
        "value": "0x0",
        "input": "0x6276cbbe000000000000000000000000978ffd85e86738572c5832fcb66f5cc191ddbe14000000000000000000000000fa886d60e1a7cb73923af9281a87073d1235f4bf0000000000000000000000000000000000000000000000000000000000800000000000000000000000000000000000000000000000000000000000000000003c0000000000000000000000001387bb54fb1f85f4b99b637f9ec36ca645d878880000000000000000000000000000000000000001000000000000000000000000",
        "nonce": "0xe4",
        "chainId": "0xaa36a7"
      },
      "additionalContracts": [],
      "isFixedGasLimit": false
    }
  ],
  "receipts": [
    {
      "status": "0x1",
      "cumulativeGasUsed": "0x9e2d9d",
      "logs": [
        {
          "address": "0x978ffd85e86738572c5832fcb66f5cc191ddbe14",
          "topics": [
            "0xddf252ad1be2c89b69c2b068fc378daa952ba7f163c4a11628f55a4df523b3ef",
            "0x0000000000000000000000000000000000000000000000000000000000000000",
            "0x000000000000000000000000e909105ad23e37b851099d1df09a28fe31624108"
          ],
          "data": "0x00000000000000000000000000000000000000000000d3c21bcecceda1000000",
          "blockHash": "0x0ab1829b33bf1bc1e7565e800593d2783749fabd2561ca52178407a82d5231fd",
          "blockNumber": "0x9fddb8",
          "blockTimestamp": "0x69bbf488",
          "transactionHash": "0x85ee07f93fb950632f3da368f4a5248518c8d027d25ca80861d31e4ae4ebf489",
          "transactionIndex": "0x62",
          "logIndex": "0x96",
          "removed": false
        }
      ],
      "logsBloom": "0x00000000000000000000000000000000000000000000000000000000000000000000000000100000000000000000000000000000000000000000000000000000000000000000000020000008000000000000000000000000000000000000000000000008020000000000000000000800000000000000000000000010000000000000000000000000000000000000000000000000000000000000000000000000000000000000000000000000000000000000000000000000000080000000000000000002000000000000000000000000000000000000000000000000004020100000000000000000000000000000000000000000000000000000000000000000",
      "type": "0x2",
      "transactionHash": "0x85ee07f93fb950632f3da368f4a5248518c8d027d25ca80861d31e4ae4ebf489",
      "transactionIndex": "0x62",
      "blockHash": "0x0ab1829b33bf1bc1e7565e800593d2783749fabd2561ca52178407a82d5231fd",
      "blockNumber": "0x9fddb8",
      "gasUsed": "0x8bbdd",
      "effectiveGasPrice": "0xf424a",
      "from": "0xe909105ad23e37b851099d1df09a28fe31624108",
      "to": null,
      "contractAddress": "0x978ffd85e86738572c5832fcb66f5cc191ddbe14"
    },
    {
      "status": "0x1",
      "cumulativeGasUsed": "0xf3f97e",
      "logs": [
        {
          "address": "0xfa886d60e1a7cb73923af9281a87073d1235f4bf",
          "topics": [
            "0xddf252ad1be2c89b69c2b068fc378daa952ba7f163c4a11628f55a4df523b3ef",
            "0x0000000000000000000000000000000000000000000000000000000000000000",
            "0x000000000000000000000000e909105ad23e37b851099d1df09a28fe31624108"
          ],
          "data": "0x00000000000000000000000000000000000000000000d3c21bcecceda1000000",
          "blockHash": "0x0c2a63ff9953666aa4ca55de519551aee5ff398ee58e87f38b9d4e43b44c9180",
          "blockNumber": "0x9fddb9",
          "blockTimestamp": "0x69bbf494",
          "transactionHash": "0x87c4183174395e90f14a9db74906f7f47539f4c5056c3e144eac89f5ca7dc291",
          "transactionIndex": "0x69",
          "logIndex": "0xcd",
          "removed": false
        }
      ],
      "logsBloom": "0x00000000000000000000000000000000000000000000000000000000000000000000000000100000000000000000000000000000004000000000000000000000000000000000000000000008000000000000000000000000000000000000000000000008020000000000000000000800000000000000000000000010000000000000000000000000000000000000000000000000000000000000000000000000000000000000000000000000000000000000000000000000000000000000000000004002000000000000000000000000000000000000000000000000000020100000800000000000000000000000000000000000000000000000000000000000",
      "type": "0x2",
      "transactionHash": "0x87c4183174395e90f14a9db74906f7f47539f4c5056c3e144eac89f5ca7dc291",
      "transactionIndex": "0x69",
      "blockHash": "0x0c2a63ff9953666aa4ca55de519551aee5ff398ee58e87f38b9d4e43b44c9180",
      "blockNumber": "0x9fddb9",
      "gasUsed": "0x8bbdd",
      "effectiveGasPrice": "0xf424a",
      "from": "0xe909105ad23e37b851099d1df09a28fe31624108",
      "to": null,
      "contractAddress": "0xfa886d60e1a7cb73923af9281a87073d1235f4bf"
    },
    {
      "status": "0x1",
      "cumulativeGasUsed": "0xcef636",
      "logs": [
        {
          "address": "0x978ffd85e86738572c5832fcb66f5cc191ddbe14",
          "topics": [
            "0xddf252ad1be2c89b69c2b068fc378daa952ba7f163c4a11628f55a4df523b3ef",
            "0x0000000000000000000000000000000000000000000000000000000000000000",
            "0x000000000000000000000000e909105ad23e37b851099d1df09a28fe31624108"
          ],
          "data": "0x0000000000000000000000000000000000000000000000056bc75e2d63100000",
          "blockHash": "0x2754fed70156b0c95f35d651d281588747f02728fa4d14781a6aaec7b78a168e",
          "blockNumber": "0x9fddba",
          "blockTimestamp": "0x69bbf4a0",
          "transactionHash": "0xc4b9ed229a60469e2c8345bda3e6040dd1ed33d230c3c9be84e441bc05b7d016",
          "transactionIndex": "0x4e",
          "logIndex": "0x5a",
          "removed": false
        }
      ],
      "logsBloom": "0x00000000000000000000000000000000000000000000000000000000000000000000000000100000000000000000000000000000000000000000000000000000000000000000000020000008000000000000000000000000000000000000000000000008020000000000000000000800000000000000000000000010000000000000000000000000000000000000000000000000000000000000000000000000000000000000000000000000000000000000000000000000000080000000000000000002000000000000000000000000000000000000000000000000004020100000000000000000000000000000000000000000000000000000000000000000",
      "type": "0x2",
      "transactionHash": "0xc4b9ed229a60469e2c8345bda3e6040dd1ed33d230c3c9be84e441bc05b7d016",
      "transactionIndex": "0x4e",
      "blockHash": "0x2754fed70156b0c95f35d651d281588747f02728fa4d14781a6aaec7b78a168e",
      "blockNumber": "0x9fddba",
      "gasUsed": "0x85cb",
      "effectiveGasPrice": "0xf424a",
      "from": "0xe909105ad23e37b851099d1df09a28fe31624108",
      "to": "0x978ffd85e86738572c5832fcb66f5cc191ddbe14",
      "contractAddress": null
    },
    {
      "status": "0x1",
      "cumulativeGasUsed": "0x9f2558",
      "logs": [
        {
          "address": "0xfa886d60e1a7cb73923af9281a87073d1235f4bf",
          "topics": [
            "0xddf252ad1be2c89b69c2b068fc378daa952ba7f163c4a11628f55a4df523b3ef",
            "0x0000000000000000000000000000000000000000000000000000000000000000",
            "0x000000000000000000000000e909105ad23e37b851099d1df09a28fe31624108"
          ],
          "data": "0x0000000000000000000000000000000000000000000000056bc75e2d63100000",
          "blockHash": "0x57c934f1764e0a723bfe3e6d24a4db1272b6cd9d6cd397b6251b5ab9f5a7bce8",
          "blockNumber": "0x9fddbb",
          "blockTimestamp": "0x69bbf4ac",
          "transactionHash": "0x2fcb47013834c2d023056b199de0756e6bffb42559d59d12cb9071ba37e130a6",
          "transactionIndex": "0x54",
          "logIndex": "0x54",
          "removed": false
        }
      ],
      "logsBloom": "0x00000000000000000000000000000000000000000000000000000000000000000000000000100000000000000000000000000000004000000000000000000000000000000000000000000008000000000000000000000000000000000000000000000008020000000000000000000800000000000000000000000010000000000000000000000000000000000000000000000000000000000000000000000000000000000000000000000000000000000000000000000000000000000000000000004002000000000000000000000000000000000000000000000000000020100000800000000000000000000000000000000000000000000000000000000000",
      "type": "0x2",
      "transactionHash": "0x2fcb47013834c2d023056b199de0756e6bffb42559d59d12cb9071ba37e130a6",
      "transactionIndex": "0x54",
      "blockHash": "0x57c934f1764e0a723bfe3e6d24a4db1272b6cd9d6cd397b6251b5ab9f5a7bce8",
      "blockNumber": "0x9fddbb",
      "gasUsed": "0x85cb",
      "effectiveGasPrice": "0xf424a",
      "from": "0xe909105ad23e37b851099d1df09a28fe31624108",
      "to": "0xfa886d60e1a7cb73923af9281a87073d1235f4bf",
      "contractAddress": null
    },
    {
      "status": "0x1",
      "cumulativeGasUsed": "0x105928d",
      "logs": [
        {
          "address": "0x978ffd85e86738572c5832fcb66f5cc191ddbe14",
          "topics": [
            "0x8c5be1e5ebec7d5bd14f71427d1e84f3dd0314c0f7b2291e5b200ac8c7c3b925",
            "0x000000000000000000000000e909105ad23e37b851099d1df09a28fe31624108",
            "0x000000000000000000000000e03a1074c86cfedd5c142c4f04f1a1536e203543"
          ],
          "data": "0xffffffffffffffffffffffffffffffffffffffffffffffffffffffffffffffff",
          "blockHash": "0x7f815d9b1bc07b13c0b18ad608cafb2cff8818f36928f4754d6fbced1bcd2c92",
          "blockNumber": "0x9fddbc",
          "blockTimestamp": "0x69bbf4b8",
          "transactionHash": "0xe37c7c44009355aa8811e104d5f282b3736b8783e53f76365ca99a6da2d24a3f",
          "transactionIndex": "0x54",
          "logIndex": "0x9a",
          "removed": false
        }
      ],
      "logsBloom": "0x00000000000000000000000000000000000000000000000000000000000000000000000000100000000000000000000000000000000000000000000000200000000000000000000020000000000000000000000000000000000000000000000000000008000000000000000080000000000000000000000000000000000000000000000000000000000010000000000000000000000000000000000000000000020000000000000000000000000000000000000000000000000080000000000000000000000000000000000000000000000000000000000000001000004000100010000000000000000000000000000000000000000000000000000000000000",
      "type": "0x2",
      "transactionHash": "0xe37c7c44009355aa8811e104d5f282b3736b8783e53f76365ca99a6da2d24a3f",
      "transactionIndex": "0x54",
      "blockHash": "0x7f815d9b1bc07b13c0b18ad608cafb2cff8818f36928f4754d6fbced1bcd2c92",
      "blockNumber": "0x9fddbc",
      "gasUsed": "0xb66e",
      "effectiveGasPrice": "0xf424a",
      "from": "0xe909105ad23e37b851099d1df09a28fe31624108",
      "to": "0x978ffd85e86738572c5832fcb66f5cc191ddbe14",
      "contractAddress": null
    },
    {
      "status": "0x1",
      "cumulativeGasUsed": "0xa0ba77",
      "logs": [
        {
          "address": "0xfa886d60e1a7cb73923af9281a87073d1235f4bf",
          "topics": [
            "0x8c5be1e5ebec7d5bd14f71427d1e84f3dd0314c0f7b2291e5b200ac8c7c3b925",
            "0x000000000000000000000000e909105ad23e37b851099d1df09a28fe31624108",
            "0x000000000000000000000000e03a1074c86cfedd5c142c4f04f1a1536e203543"
          ],
          "data": "0xffffffffffffffffffffffffffffffffffffffffffffffffffffffffffffffff",
          "blockHash": "0x9e86fdf2fefaf34ad823d6a3581ea7bc8292482f7559a9f41326d9aa0181ea91",
          "blockNumber": "0x9fddbd",
          "blockTimestamp": "0x69bbf4c4",
          "transactionHash": "0x5d032ed4fbbded7cfe8d51dfd9c54a96a3b292fed5f6903b0e38fd49148aba3d",
          "transactionIndex": "0x5e",
          "logIndex": "0x9d",
          "removed": false
        }
      ],
      "logsBloom": "0x00000000000000000000000000000000000000000000000000000000000000000000000000100000000000000000000000000000004000000000000000200000000000000000000000000000000000000000000000000000000000000000000000000008000000000000000080000000000000000000000000000000000000000000000000000000000010000000000000000000000000000000000000000000020000000000000000000000000000000000000000000000000000000000000000004000000000000000000000000000000000000000000000001000000000100010800000000000000000000000000000000000000000000000000000000000",
      "type": "0x2",
      "transactionHash": "0x5d032ed4fbbded7cfe8d51dfd9c54a96a3b292fed5f6903b0e38fd49148aba3d",
      "transactionIndex": "0x5e",
      "blockHash": "0x9e86fdf2fefaf34ad823d6a3581ea7bc8292482f7559a9f41326d9aa0181ea91",
      "blockNumber": "0x9fddbd",
      "gasUsed": "0xb66e",
      "effectiveGasPrice": "0xf424a",
      "from": "0xe909105ad23e37b851099d1df09a28fe31624108",
      "to": "0xfa886d60e1a7cb73923af9281a87073d1235f4bf",
      "contractAddress": null
    },
    {
      "status": "0x1",
      "cumulativeGasUsed": "0x70b092",
      "logs": [
        {
          "address": "0xe03a1074c86cfedd5c142c4f04f1a1536e203543",
          "topics": [
            "0xdd466e674ea557f56295e2d0218a125ea4b4f0f6f3307b95f85e6110838d6438",
            "0xc76cdade980119a26b5cd3df033d48e8aba5e266a326768383e2878d775b5deb",
            "0x000000000000000000000000978ffd85e86738572c5832fcb66f5cc191ddbe14",
            "0x000000000000000000000000fa886d60e1a7cb73923af9281a87073d1235f4bf"
          ],
          "data": "0x0000000000000000000000000000000000000000000000000000000000800000000000000000000000000000000000000000000000000000000000000000003c0000000000000000000000001387bb54fb1f85f4b99b637f9ec36ca645d8788800000000000000000000000000000000000000010000000000000000000000000000000000000000000000000000000000000000000000000000000000000000",
          "blockHash": "0xeb6f09588d960e741e66092e095b83ac5c27a27d8cf4ba5a93fd9b7f55268429",
          "blockNumber": "0x9fddbe",
          "blockTimestamp": "0x69bbf4d0",
          "transactionHash": "0xbe48f5901e30cfc76d63716f00dac5f519f7cfe050ee59e9c006e6adab8d56da",
          "transactionIndex": "0x47",
          "logIndex": "0x3a",
          "removed": false
        },
        {
          "address": "0x9acc1180b4536e51917cf7de17306fb04d0e22c5",
          "topics": [
            "0xa3b98146d3ebae54df156862de54619aba184a59c534ecf3084db78390d79e8e",
            "0x776cf2fddaa39ebac5991b57258fcb5872a738b52ef782b712af886f02b50f05",
            "0x0000000000000000000000001387bb54fb1f85f4b99b637f9ec36ca645d87888",
            "0x0000000000000000000000001387bb54fb1f85f4b99b637f9ec36ca645d87888"
          ],
          "data": "0x000000000000000000000000978ffd85e86738572c5832fcb66f5cc191ddbe14",
          "blockHash": "0xeb6f09588d960e741e66092e095b83ac5c27a27d8cf4ba5a93fd9b7f55268429",
          "blockNumber": "0x9fddbe",
          "blockTimestamp": "0x69bbf4d0",
          "transactionHash": "0xbe48f5901e30cfc76d63716f00dac5f519f7cfe050ee59e9c006e6adab8d56da",
          "transactionIndex": "0x47",
          "logIndex": "0x3b",
          "removed": false
        },
        {
          "address": "0x1387bb54fb1f85f4b99b637f9ec36ca645d87888",
          "topics": [
            "0xd6c9456e1d1f149222b8c3529360bd6aa175d60db8227a3900b86d755d16022b",
            "0x000000000000000000000000978ffd85e86738572c5832fcb66f5cc191ddbe14"
          ],
          "data": "0x776cf2fddaa39ebac5991b57258fcb5872a738b52ef782b712af886f02b50f05",
          "blockHash": "0xeb6f09588d960e741e66092e095b83ac5c27a27d8cf4ba5a93fd9b7f55268429",
          "blockNumber": "0x9fddbe",
          "blockTimestamp": "0x69bbf4d0",
          "transactionHash": "0xbe48f5901e30cfc76d63716f00dac5f519f7cfe050ee59e9c006e6adab8d56da",
          "transactionIndex": "0x47",
          "logIndex": "0x3c",
          "removed": false
        },
        {
          "address": "0x9acc1180b4536e51917cf7de17306fb04d0e22c5",
          "topics": [
            "0xa3b98146d3ebae54df156862de54619aba184a59c534ecf3084db78390d79e8e",
            "0x29f1d1591e6baff551220d93e808c35371d3f6eae8abbb30b739fa79f50e4399",
            "0x0000000000000000000000001387bb54fb1f85f4b99b637f9ec36ca645d87888",
            "0x0000000000000000000000001387bb54fb1f85f4b99b637f9ec36ca645d87888"
          ],
          "data": "0x000000000000000000000000fa886d60e1a7cb73923af9281a87073d1235f4bf",
          "blockHash": "0xeb6f09588d960e741e66092e095b83ac5c27a27d8cf4ba5a93fd9b7f55268429",
          "blockNumber": "0x9fddbe",
          "blockTimestamp": "0x69bbf4d0",
          "transactionHash": "0xbe48f5901e30cfc76d63716f00dac5f519f7cfe050ee59e9c006e6adab8d56da",
          "transactionIndex": "0x47",
          "logIndex": "0x3d",
          "removed": false
        },
        {
          "address": "0x1387bb54fb1f85f4b99b637f9ec36ca645d87888",
          "topics": [
            "0xd6c9456e1d1f149222b8c3529360bd6aa175d60db8227a3900b86d755d16022b",
            "0x000000000000000000000000fa886d60e1a7cb73923af9281a87073d1235f4bf"
          ],
          "data": "0x29f1d1591e6baff551220d93e808c35371d3f6eae8abbb30b739fa79f50e4399",
          "blockHash": "0xeb6f09588d960e741e66092e095b83ac5c27a27d8cf4ba5a93fd9b7f55268429",
          "blockNumber": "0x9fddbe",
          "blockTimestamp": "0x69bbf4d0",
          "transactionHash": "0xbe48f5901e30cfc76d63716f00dac5f519f7cfe050ee59e9c006e6adab8d56da",
          "transactionIndex": "0x47",
          "logIndex": "0x3e",
          "removed": false
        }
      ],
      "logsBloom": "0x00000000000000000000000000000000000000000000000000000000000000240000000000000000000000018000000000000100000000000400202000000000000000000000000000000010000000400800000000000000010000000000080000000000000000000000000000000000000000800000100000000001000000000000010008002008000020000000000000000001000000000000000400200000000000000000000000000000000000000000000000000000000000000000040008000220000000000000000000000000000000000000000000000200000000011000000000000000000100000201000000000000000000000000000c00000000",
      "type": "0x2",
      "transactionHash": "0xbe48f5901e30cfc76d63716f00dac5f519f7cfe050ee59e9c006e6adab8d56da",
      "transactionIndex": "0x47",
      "blockHash": "0xeb6f09588d960e741e66092e095b83ac5c27a27d8cf4ba5a93fd9b7f55268429",
      "blockNumber": "0x9fddbe",
      "gasUsed": "0x8c671",
      "effectiveGasPrice": "0xf424a",
      "from": "0xe909105ad23e37b851099d1df09a28fe31624108",
      "to": "0xe03a1074c86cfedd5c142c4f04f1a1536e203543",
      "contractAddress": null
    }
  ],
  "libraries": [],
  "pending": [],
  "returns": {},
  "timestamp": 1773925585061,
  "chain": 11155111,
  "commit": null
}