{
  "transactions": [
    {
      "hash": "0xa056ef8a6d1825bd3f14a0327d28eeae40d7c77c59a7578a146061bd3ec19f5f",
      "transactionType": "CREATE",
      "contractName": "TestToken",
      "contractAddress": "0xebbcbd2ae8a49e623fe5429f7be640e1458378b8",
      "function": null,
      "arguments": [
        "TokenA",
        "TKA"
      ],
      "transaction": {
        "from": "0xe909105ad23e37b851099d1df09a28fe31624108",
        "gas": "0xb5a9f",
        "value": "0x0",
        "input": "0x608060405234801561000f575f80fd5b50604051610ba5380380610ba583398101604081905261002e9161026d565b8181600361003c8382610356565b5060046100498282610356565b5050506100663369d3c21bcecceda100000061006d60201b60201c565b5050610435565b6001600160a01b03821661009b5760405163ec442f0560e01b81525f60048201526024015b60405180910390fd5b6100a65f83836100aa565b5050565b6001600160a01b0383166100d4578060025f8282546100c99190610410565b909155506101449050565b6001600160a01b0383165f90815260208190526040902054818110156101265760405163391434e360e21b81526001600160a01b03851660048201526024810182905260448101839052606401610092565b6001600160a01b0384165f9081526020819052604090209082900390555b6001600160a01b0382166101605760028054829003905561017e565b6001600160a01b0382165f9081526020819052604090208054820190555b816001600160a01b0316836001600160a01b03167fddf252ad1be2c89b69c2b068fc378daa952ba7f163c4a11628f55a4df523b3ef836040516101c391815260200190565b60405180910390a3505050565b634e487b7160e01b5f52604160045260245ffd5b5f82601f8301126101f3575f80fd5b81516001600160401b0381111561020c5761020c6101d0565b604051601f8201601f19908116603f011681016001600160401b038111828210171561023a5761023a6101d0565b604052818152838201602001851015610251575f80fd5b8160208501602083015e5f918101602001919091529392505050565b5f806040838503121561027e575f80fd5b82516001600160401b03811115610293575f80fd5b61029f858286016101e4565b602085015190935090506001600160401b038111156102bc575f80fd5b6102c8858286016101e4565b9150509250929050565b600181811c908216806102e657607f821691505b60208210810361030457634e487b7160e01b5f52602260045260245ffd5b50919050565b601f82111561035157805f5260205f20601f840160051c8101602085101561032f5750805b601f840160051c820191505b8181101561034e575f815560010161033b565b50505b505050565b81516001600160401b0381111561036f5761036f6101d0565b6103838161037d84546102d2565b8461030a565b6020601f8211600181146103b5575f831561039e5750848201515b5f19600385901b1c1916600184901b17845561034e565b5f84815260208120601f198516915b828110156103e457878501518255602094850194600190920191016103c4565b508482101561040157868401515f19600387901b60f8161c191681555b50505050600190811b01905550565b8082018082111561042f57634e487b7160e01b5f52601160045260245ffd5b92915050565b610763806104425f395ff3fe608060405234801561000f575f80fd5b50600436106100b9575f3560e01c806340c10f191161007257806395d89b411161005857806395d89b411461016f578063a9059cbb14610177578063dd62ed3e1461018a575f80fd5b806340c10f191461013257806370a0823114610147575f80fd5b806318160ddd116100a257806318160ddd146100fe57806323b872dd14610110578063313ce56714610123575f80fd5b806306fdde03146100bd578063095ea7b3146100db575b5f80fd5b6100c56101c2565b6040516100d291906105d3565b60405180910390f35b6100ee6100e9366004610623565b610252565b60405190151581526020016100d2565b6002545b6040519081526020016100d2565b6100ee61011e36600461064b565b61026b565b604051601281526020016100d2565b610145610140366004610623565b61028e565b005b610102610155366004610685565b6001600160a01b03165f9081526020819052604090205490565b6100c561029c565b6100ee610185366004610623565b6102ab565b6101026101983660046106a5565b6001600160a01b039182165f90815260016020908152604080832093909416825291909152205490565b6060600380546101d1906106d6565b80601f01602080910402602001604051908101604052809291908181526020018280546101fd906106d6565b80156102485780601f1061021f57610100808354040283529160200191610248565b820191905f5260205f20905b81548152906001019060200180831161022b57829003601f168201915b5050505050905090565b5f3361025f8185856102b8565b60019150505b92915050565b5f336102788582856102ca565b61028385858561034a565b506001949350505050565b61029882826103a7565b5050565b6060600480546101d1906106d6565b5f3361025f81858561034a565b6102c583838360016103db565b505050565b6001600160a01b038381165f908152600160209081526040808320938616835292905220545f198114610344578181101561033657604051637dc7a0d960e11b81526001600160a01b038416600482015260248101829052604481018390526064015b60405180910390fd5b61034484848484035f6103db565b50505050565b6001600160a01b03831661037357604051634b637e8f60e11b81525f600482015260240161032d565b6001600160a01b03821661039c5760405163ec442f0560e01b81525f600482015260240161032d565b6102c58383836104ad565b6001600160a01b0382166103d05760405163ec442f0560e01b81525f600482015260240161032d565b6102985f83836104ad565b6001600160a01b0384166104045760405163e602df0560e01b81525f600482015260240161032d565b6001600160a01b03831661042d57604051634a1406b160e11b81525f600482015260240161032d565b6001600160a01b038085165f908152600160209081526040808320938716835292905220829055801561034457826001600160a01b0316846001600160a01b03167f8c5be1e5ebec7d5bd14f71427d1e84f3dd0314c0f7b2291e5b200ac8c7c3b9258460405161049f91815260200190565b60405180910390a350505050565b6001600160a01b0383166104d7578060025f8282546104cc919061070e565b909155506105479050565b6001600160a01b0383165f90815260208190526040902054818110156105295760405163391434e360e21b81526001600160a01b0385166004820152602481018290526044810183905260640161032d565b6001600160a01b0384165f9081526020819052604090209082900390555b6001600160a01b03821661056357600280548290039055610581565b6001600160a01b0382165f9081526020819052604090208054820190555b816001600160a01b0316836001600160a01b03167fddf252ad1be2c89b69c2b068fc378daa952ba7f163c4a11628f55a4df523b3ef836040516105c691815260200190565b60405180910390a3505050565b602081525f82518060208401528060208501604085015e5f604082850101526040601f19601f83011684010191505092915050565b80356001600160a01b038116811461061e575f80fd5b919050565b5f8060408385031215610634575f80fd5b61063d83610608565b946020939093013593505050565b5f805f6060848603121561065d575f80fd5b61066684610608565b925061067460208501610608565b929592945050506040919091013590565b5f60208284031215610695575f80fd5b61069e82610608565b9392505050565b5f80604083850312156106b6575f80fd5b6106bf83610608565b91506106cd60208401610608565b90509250929050565b600181811c908216806106ea57607f821691505b60208210810361070857634e487b7160e01b5f52602260045260245ffd5b50919050565b8082018082111561026557634e487b7160e01b5f52601160045260245ffdfea2646970667358221220ec06fb0c47413fd425b663292097237f2ae3e238ecf606085153eed0f3cc80c964736f6c634300081a0033000000000000000000000000000000000000000000000000000000000000004000000000000000000000000000000000000000000000000000000000000000800000000000000000000000000000000000000000000000000000000000000006546f6b656e4100000000000000000000000000000000000000000000000000000000000000000000000000000000000000000000000000000000000000000003544b410000000000000000000000000000000000000000000000000000000000",
        "nonce": "0x118",
        "chainId": "0xaa36a7"
      },
      "additionalContracts": [],
      "isFixedGasLimit": false
    },
    {
      "hash": "0x12ac4848b7fda4250d130221b685b04ca398a4ac87b6b37e2fc3829b393b36a5",
      "transactionType": "CREATE",
      "contractName": "TestToken",
      "contractAddress": "0x30b0f17e6d3c9b67e04ffb2dbb7353d28ccd3c58",
      "function": null,
      "arguments": [
        "TokenB",
        "TKB"
      ],
      "transaction": {
        "from": "0xe909105ad23e37b851099d1df09a28fe31624108",
        "gas": "0xb5a9f",
        "value": "0x0",
        "input": "0x608060405234801561000f575f80fd5b50604051610ba5380380610ba583398101604081905261002e9161026d565b8181600361003c8382610356565b5060046100498282610356565b5050506100663369d3c21bcecceda100000061006d60201b60201c565b5050610435565b6001600160a01b03821661009b5760405163ec442f0560e01b81525f60048201526024015b60405180910390fd5b6100a65f83836100aa565b5050565b6001600160a01b0383166100d4578060025f8282546100c99190610410565b909155506101449050565b6001600160a01b0383165f90815260208190526040902054818110156101265760405163391434e360e21b81526001600160a01b03851660048201526024810182905260448101839052606401610092565b6001600160a01b0384165f9081526020819052604090209082900390555b6001600160a01b0382166101605760028054829003905561017e565b6001600160a01b0382165f9081526020819052604090208054820190555b816001600160a01b0316836001600160a01b03167fddf252ad1be2c89b69c2b068fc378daa952ba7f163c4a11628f55a4df523b3ef836040516101c391815260200190565b60405180910390a3505050565b634e487b7160e01b5f52604160045260245ffd5b5f82601f8301126101f3575f80fd5b81516001600160401b0381111561020c5761020c6101d0565b604051601f8201601f19908116603f011681016001600160401b038111828210171561023a5761023a6101d0565b604052818152838201602001851015610251575f80fd5b8160208501602083015e5f918101602001919091529392505050565b5f806040838503121561027e575f80fd5b82516001600160401b03811115610293575f80fd5b61029f858286016101e4565b602085015190935090506001600160401b038111156102bc575f80fd5b6102c8858286016101e4565b9150509250929050565b600181811c908216806102e657607f821691505b60208210810361030457634e487b7160e01b5f52602260045260245ffd5b50919050565b601f82111561035157805f5260205f20601f840160051c8101602085101561032f5750805b601f840160051c820191505b8181101561034e575f815560010161033b565b50505b505050565b81516001600160401b0381111561036f5761036f6101d0565b6103838161037d84546102d2565b8461030a565b6020601f8211600181146103b5575f831561039e5750848201515b5f19600385901b1c1916600184901b17845561034e565b5f84815260208120601f198516915b828110156103e457878501518255602094850194600190920191016103c4565b508482101561040157868401515f19600387901b60f8161c191681555b50505050600190811b01905550565b8082018082111561042f57634e487b7160e01b5f52601160045260245ffd5b92915050565b610763806104425f395ff3fe608060405234801561000f575f80fd5b50600436106100b9575f3560e01c806340c10f191161007257806395d89b411161005857806395d89b411461016f578063a9059cbb14610177578063dd62ed3e1461018a575f80fd5b806340c10f191461013257806370a0823114610147575f80fd5b806318160ddd116100a257806318160ddd146100fe57806323b872dd14610110578063313ce56714610123575f80fd5b806306fdde03146100bd578063095ea7b3146100db575b5f80fd5b6100c56101c2565b6040516100d291906105d3565b60405180910390f35b6100ee6100e9366004610623565b610252565b60405190151581526020016100d2565b6002545b6040519081526020016100d2565b6100ee61011e36600461064b565b61026b565b604051601281526020016100d2565b610145610140366004610623565b61028e565b005b610102610155366004610685565b6001600160a01b03165f9081526020819052604090205490565b6100c561029c565b6100ee610185366004610623565b6102ab565b6101026101983660046106a5565b6001600160a01b039182165f90815260016020908152604080832093909416825291909152205490565b6060600380546101d1906106d6565b80601f01602080910402602001604051908101604052809291908181526020018280546101fd906106d6565b80156102485780601f1061021f57610100808354040283529160200191610248565b820191905f5260205f20905b81548152906001019060200180831161022b57829003601f168201915b5050505050905090565b5f3361025f8185856102b8565b60019150505b92915050565b5f336102788582856102ca565b61028385858561034a565b506001949350505050565b61029882826103a7565b5050565b6060600480546101d1906106d6565b5f3361025f81858561034a565b6102c583838360016103db565b505050565b6001600160a01b038381165f908152600160209081526040808320938616835292905220545f198114610344578181101561033657604051637dc7a0d960e11b81526001600160a01b038416600482015260248101829052604481018390526064015b60405180910390fd5b61034484848484035f6103db565b50505050565b6001600160a01b03831661037357604051634b637e8f60e11b81525f600482015260240161032d565b6001600160a01b03821661039c5760405163ec442f0560e01b81525f600482015260240161032d565b6102c58383836104ad565b6001600160a01b0382166103d05760405163ec442f0560e01b81525f600482015260240161032d565b6102985f83836104ad565b6001600160a01b0384166104045760405163e602df0560e01b81525f600482015260240161032d565b6001600160a01b03831661042d57604051634a1406b160e11b81525f600482015260240161032d565b6001600160a01b038085165f908152600160209081526040808320938716835292905220829055801561034457826001600160a01b0316846001600160a01b03167f8c5be1e5ebec7d5bd14f71427d1e84f3dd0314c0f7b2291e5b200ac8c7c3b9258460405161049f91815260200190565b60405180910390a350505050565b6001600160a01b0383166104d7578060025f8282546104cc919061070e565b909155506105479050565b6001600160a01b0383165f90815260208190526040902054818110156105295760405163391434e360e21b81526001600160a01b0385166004820152602481018290526044810183905260640161032d565b6001600160a01b0384165f9081526020819052604090209082900390555b6001600160a01b03821661056357600280548290039055610581565b6001600160a01b0382165f9081526020819052604090208054820190555b816001600160a01b0316836001600160a01b03167fddf252ad1be2c89b69c2b068fc378daa952ba7f163c4a11628f55a4df523b3ef836040516105c691815260200190565b60405180910390a3505050565b602081525f82518060208401528060208501604085015e5f604082850101526040601f19601f83011684010191505092915050565b80356001600160a01b038116811461061e575f80fd5b919050565b5f8060408385031215610634575f80fd5b61063d83610608565b946020939093013593505050565b5f805f6060848603121561065d575f80fd5b61066684610608565b925061067460208501610608565b929592945050506040919091013590565b5f60208284031215610695575f80fd5b61069e82610608565b9392505050565b5f80604083850312156106b6575f80fd5b6106bf83610608565b91506106cd60208401610608565b90509250929050565b600181811c908216806106ea57607f821691505b60208210810361070857634e487b7160e01b5f52602260045260245ffd5b50919050565b8082018082111561026557634e487b7160e01b5f52601160045260245ffdfea2646970667358221220ec06fb0c47413fd425b663292097237f2ae3e238ecf606085153eed0f3cc80c964736f6c634300081a0033000000000000000000000000000000000000000000000000000000000000004000000000000000000000000000000000000000000000000000000000000000800000000000000000000000000000000000000000000000000000000000000006546f6b656e4200000000000000000000000000000000000000000000000000000000000000000000000000000000000000000000000000000000000000000003544b420000000000000000000000000000000000000000000000000000000000",
        "nonce": "0x119",
        "chainId": "0xaa36a7"
      },
      "additionalContracts": [],
      "isFixedGasLimit": false
    },
    {
      "hash": "0x6d0b69d5f57924b9fa07fbde0c951091fec68ae96907c894a3da998e595569ff",
      "transactionType": "CALL",
      "contractName": "TestToken",
      "contractAddress": "0xebbcbd2ae8a49e623fe5429f7be640e1458378b8",
      "function": "mint(address,uint256)",
      "arguments": [
        "0xE909105aD23e37b851099d1dF09A28Fe31624108",
        "100000000000000000000"
      ],
      "transaction": {
        "from": "0xe909105ad23e37b851099d1df09a28fe31624108",
        "to": "0xebbcbd2ae8a49e623fe5429f7be640e1458378b8",
        "gas": "0xc3ab",
        "value": "0x0",
        "input": "0x40c10f19000000000000000000000000e909105ad23e37b851099d1df09a28fe316241080000000000000000000000000000000000000000000000056bc75e2d63100000",
        "nonce": "0x11a",
        "chainId": "0xaa36a7"
      },
      "additionalContracts": [],
      "isFixedGasLimit": false
    },
    {
      "hash": "0xd8c79992f7942125c93e3d1857db45b7dfc7fa60b9c620aee2c19fe4c3e3b891",
      "transactionType": "CALL",
      "contractName": "TestToken",
      "contractAddress": "0x30b0f17e6d3c9b67e04ffb2dbb7353d28ccd3c58",
      "function": "mint(address,uint256)",
      "arguments": [
        "0xE909105aD23e37b851099d1dF09A28Fe31624108",
        "100000000000000000000"
      ],
      "transaction": {
        "from": "0xe909105ad23e37b851099d1df09a28fe31624108",
        "to": "0x30b0f17e6d3c9b67e04ffb2dbb7353d28ccd3c58",
        "gas": "0xc3ab",
        "value": "0x0",
        "input": "0x40c10f19000000000000000000000000e909105ad23e37b851099d1df09a28fe316241080000000000000000000000000000000000000000000000056bc75e2d63100000",
        "nonce": "0x11b",
        "chainId": "0xaa36a7"
      },
      "additionalContracts": [],
      "isFixedGasLimit": false
    },
    {
      "hash": "0xec7de8f91eb10f59421267ea611ec5d6c5a4a91058b63f804f7982eef5455e3d",
      "transactionType": "CALL",
      "contractName": "TestToken",
      "contractAddress": "0xebbcbd2ae8a49e623fe5429f7be640e1458378b8",
      "function": "approve(address,uint256)",
      "arguments": [
        "0xE03A1074c86CFeDd5C142C4F04F1a1536e203543",
        "115792089237316195423570985008687907853269984665640564039457584007913129639935"
      ],
      "transaction": {
        "from": "0xe909105ad23e37b851099d1df09a28fe31624108",
        "to": "0xebbcbd2ae8a49e623fe5429f7be640e1458378b8",
        "gas": "0xfbfa",
        "value": "0x0",
        "input": "0x095ea7b3000000000000000000000000e03a1074c86cfedd5c142c4f04f1a1536e203543ffffffffffffffffffffffffffffffffffffffffffffffffffffffffffffffff",
        "nonce": "0x11c",
        "chainId": "0xaa36a7"
      },
      "additionalContracts": [],
      "isFixedGasLimit": false
    },
    {
      "hash": "0x490b77858ed407c491636f2eeeeeedd9b0aded1924d6eaf2d4f9cb79fd71dcee",
      "transactionType": "CALL",
      "contractName": "TestToken",
      "contractAddress": "0x30b0f17e6d3c9b67e04ffb2dbb7353d28ccd3c58",
      "function": "approve(address,uint256)",
      "arguments": [
        "0xE03A1074c86CFeDd5C142C4F04F1a1536e203543",
        "115792089237316195423570985008687907853269984665640564039457584007913129639935"
      ],
      "transaction": {
        "from": "0xe909105ad23e37b851099d1df09a28fe31624108",
        "to": "0x30b0f17e6d3c9b67e04ffb2dbb7353d28ccd3c58",
        "gas": "0xfbfa",
        "value": "0x0",
        "input": "0x095ea7b3000000000000000000000000e03a1074c86cfedd5c142c4f04f1a1536e203543ffffffffffffffffffffffffffffffffffffffffffffffffffffffffffffffff",
        "nonce": "0x11d",
        "chainId": "0xaa36a7"
      },
      "additionalContracts": [],
      "isFixedGasLimit": false
    },
    {
      "hash": "0x645b7ea43c27dfc5434df6db917a257507d50d66473a337bd68a324551f17e9e",
      "transactionType": "CALL",
      "contractName": null,
      "contractAddress": "0xe03a1074c86cfedd5c142c4f04f1a1536e203543",
      "function": "initialize((address,address,uint24,int24,address),uint160)",
      "arguments": [
        "(0x30B0F17E6d3C9b67E04fFb2dbB7353d28CcD3C58, 0xEbBCBd2ae8a49E623fe5429F7BE640e1458378B8, 8388608, 60, 0x43A7D2f3a80A839C6d6bDA285954882df12FB888)",
        "79228162514264337593543950336"
      ],
      "transaction": {
        "from": "0xe909105ad23e37b851099d1df09a28fe31624108",
        "to": "0xe03a1074c86cfedd5c142c4f04f1a1536e203543",
        "gas": "0xda8cc",
        "value": "0x0",
        "input": "0x6276cbbe00000000000000000000000030b0f17e6d3c9b67e04ffb2dbb7353d28ccd3c58000000000000000000000000ebbcbd2ae8a49e623fe5429f7be640e1458378b80000000000000000000000000000000000000000000000000000000000800000000000000000000000000000000000000000000000000000000000000000003c00000000000000000000000043a7d2f3a80a839c6d6bda285954882df12fb8880000000000000000000000000000000000000001000000000000000000000000",
        "nonce": "0x11e",
        "chainId": "0xaa36a7"
      },
      "additionalContracts": [],
      "isFixedGasLimit": false
    }
  ],
  "receipts": [
    {
      "status": "0x1",
      "cumulativeGasUsed": "0x100970d",
      "logs": [
        {
          "address": "0xebbcbd2ae8a49e623fe5429f7be640e1458378b8",
          "topics": [
            "0xddf252ad1be2c89b69c2b068fc378daa952ba7f163c4a11628f55a4df523b3ef",
            "0x0000000000000000000000000000000000000000000000000000000000000000",
            "0x000000000000000000000000e909105ad23e37b851099d1df09a28fe31624108"
          ],
          "data": "0x00000000000000000000000000000000000000000000d3c21bcecceda1000000",
          "blockHash": "0x4151211046c386d89ea6a53df13cecf780eb6cf7056fe731e1fe7e6d0fee6aaf",
          "blockNumber": "0x9fe238",
          "blockTimestamp": "0x69bc2cbc",
          "transactionHash": "0xa056ef8a6d1825bd3f14a0327d28eeae40d7c77c59a7578a146061bd3ec19f5f",
          "transactionIndex": "0x77",
          "logIndex": "0xf8",
          "removed": false
        }
      ],
      "logsBloom": "0x00000000000000000000000000000000000000000000000000200000000000000000000000900000000000000000000000000000000000000000000000000000000000000000000000000008000000000000000000000000000000000000000000000008020000000000000000000800000000000000000000000010000000000000000000000000000000000000000000000000000000000000000000000000000000000000000000000000000000000000000000000000000000000000000000000002000000000000000000000000000000000000000000000000000022100000000000000000000000000000000000000000000000000000000000000000",
      "type": "0x2",
      "transactionHash": "0xa056ef8a6d1825bd3f14a0327d28eeae40d7c77c59a7578a146061bd3ec19f5f",
      "transactionIndex": "0x77",
      "blockHash": "0x4151211046c386d89ea6a53df13cecf780eb6cf7056fe731e1fe7e6d0fee6aaf",
      "blockNumber": "0x9fe238",
      "gasUsed": "0x8bbdd",
      "effectiveGasPrice": "0xf424a",
      "from": "0xe909105ad23e37b851099d1df09a28fe31624108",
      "to": null,
      "contractAddress": "0xebbcbd2ae8a49e623fe5429f7be640e1458378b8"
    },
    {
      "status": "0x1",
      "cumulativeGasUsed": "0xaa823d",
      "logs": [
        {
          "address": "0x30b0f17e6d3c9b67e04ffb2dbb7353d28ccd3c58",
          "topics": [
            "0xddf252ad1be2c89b69c2b068fc378daa952ba7f163c4a11628f55a4df523b3ef",
            "0x0000000000000000000000000000000000000000000000000000000000000000",
            "0x000000000000000000000000e909105ad23e37b851099d1df09a28fe31624108"
          ],
          "data": "0x00000000000000000000000000000000000000000000d3c21bcecceda1000000",
          "blockHash": "0xf0bb5938145ab2523788450ab54a7e9e5da6619cac9c52c8a217534b45c77e50",
          "blockNumber": "0x9fe239",
          "blockTimestamp": "0x69bc2cc8",
          "transactionHash": "0x12ac4848b7fda4250d130221b685b04ca398a4ac87b6b37e2fc3829b393b36a5",
          "transactionIndex": "0x6f",
          "logIndex": "0x115",
          "removed": false
        }
      ],
      "logsBloom": "0x00000000000000000000000000000000000000000000000000000000000000000000000000100000000000000000000000002000000000000000000000000000000000000000000000000008000000000000000000000000000000000000000000000008020000000000000000000800000000000000000000000010000000000000000000000000000000000000000000000000000000000000000000000000000000000000000000000000000000000000000000000000000000000000000000000002000000000000000000000000000000000000000000000000000020100000000000000000000000000000000000000000000000000000000000000008",
      "type": "0x2",
      "transactionHash": "0x12ac4848b7fda4250d130221b685b04ca398a4ac87b6b37e2fc3829b393b36a5",
      "transactionIndex": "0x6f",
      "blockHash": "0xf0bb5938145ab2523788450ab54a7e9e5da6619cac9c52c8a217534b45c77e50",
      "blockNumber": "0x9fe239",
      "gasUsed": "0x8bbdd",
      "effectiveGasPrice": "0xf424a",
      "from": "0xe909105ad23e37b851099d1df09a28fe31624108",
      "to": null,
      "contractAddress": "0x30b0f17e6d3c9b67e04ffb2dbb7353d28ccd3c58"
    },
    {
      "status": "0x1",
      "cumulativeGasUsed": "0xb2221e",
      "logs": [
        {
          "address": "0xebbcbd2ae8a49e623fe5429f7be640e1458378b8",
          "topics": [
            "0xddf252ad1be2c89b69c2b068fc378daa952ba7f163c4a11628f55a4df523b3ef",
            "0x0000000000000000000000000000000000000000000000000000000000000000",
            "0x000000000000000000000000e909105ad23e37b851099d1df09a28fe31624108"
          ],
          "data": "0x0000000000000000000000000000000000000000000000056bc75e2d63100000",
          "blockHash": "0xe84961918adb25bd6a6416701f395353a9349e24b6eb4137ca7ef4a91f142a3b",
          "blockNumber": "0x9fe23a",
          "blockTimestamp": "0x69bc2cd4",
          "transactionHash": "0x6d0b69d5f57924b9fa07fbde0c951091fec68ae96907c894a3da998e595569ff",
          "transactionIndex": "0x53",
          "logIndex": "0x8e",
          "removed": false
        }
      ],
      "logsBloom": "0x00000000000000000000000000000000000000000000000000200000000000000000000000900000000000000000000000000000000000000000000000000000000000000000000000000008000000000000000000000000000000000000000000000008020000000000000000000800000000000000000000000010000000000000000000000000000000000000000000000000000000000000000000000000000000000000000000000000000000000000000000000000000000000000000000000002000000000000000000000000000000000000000000000000000022100000000000000000000000000000000000000000000000000000000000000000",
      "type": "0x2",
      "transactionHash": "0x6d0b69d5f57924b9fa07fbde0c951091fec68ae96907c894a3da998e595569ff",
      "transactionIndex": "0x53",
      "blockHash": "0xe84961918adb25bd6a6416701f395353a9349e24b6eb4137ca7ef4a91f142a3b",
      "blockNumber": "0x9fe23a",
      "gasUsed": "0x85cb",
      "effectiveGasPrice": "0xf424a",
      "from": "0xe909105ad23e37b851099d1df09a28fe31624108",
      "to": "0xebbcbd2ae8a49e623fe5429f7be640e1458378b8",
      "contractAddress": null
    },
    {
      "status": "0x1",
      "cumulativeGasUsed": "0x7f4dcc",
      "logs": [
        {
          "address": "0x30b0f17e6d3c9b67e04ffb2dbb7353d28ccd3c58",
          "topics": [
            "0xddf252ad1be2c89b69c2b068fc378daa952ba7f163c4a11628f55a4df523b3ef",
            "0x0000000000000000000000000000000000000000000000000000000000000000",
            "0x000000000000000000000000e909105ad23e37b851099d1df09a28fe31624108"
          ],
          "data": "0x0000000000000000000000000000000000000000000000056bc75e2d63100000",
          "blockHash": "0x3fec900c7998e418103db798cc3d91ac82ae20340d259ea0e2f1c9374ac55ee2",
          "blockNumber": "0x9fe23b",
          "blockTimestamp": "0x69bc2ce0",
          "transactionHash": "0xd8c79992f7942125c93e3d1857db45b7dfc7fa60b9c620aee2c19fe4c3e3b891",
          "transactionIndex": "0x3e",
          "logIndex": "0x7e",
          "removed": false
        }
      ],
      "logsBloom": "0x00000000000000000000000000000000000000000000000000000000000000000000000000100000000000000000000000002000000000000000000000000000000000000000000000000008000000000000000000000000000000000000000000000008020000000000000000000800000000000000000000000010000000000000000000000000000000000000000000000000000000000000000000000000000000000000000000000000000000000000000000000000000000000000000000000002000000000000000000000000000000000000000000000000000020100000000000000000000000000000000000000000000000000000000000000008",
      "type": "0x2",
      "transactionHash": "0xd8c79992f7942125c93e3d1857db45b7dfc7fa60b9c620aee2c19fe4c3e3b891",
      "transactionIndex": "0x3e",
      "blockHash": "0x3fec900c7998e418103db798cc3d91ac82ae20340d259ea0e2f1c9374ac55ee2",
      "blockNumber": "0x9fe23b",
      "gasUsed": "0x85cb",
      "effectiveGasPrice": "0xf424a",
      "from": "0xe909105ad23e37b851099d1df09a28fe31624108",
      "to": "0x30b0f17e6d3c9b67e04ffb2dbb7353d28ccd3c58",
      "contractAddress": null
    },
    {
      "status": "0x1",
      "cumulativeGasUsed": "0x6cea4c",
      "logs": [
        {
          "address": "0xebbcbd2ae8a49e623fe5429f7be640e1458378b8",
          "topics": [
            "0x8c5be1e5ebec7d5bd14f71427d1e84f3dd0314c0f7b2291e5b200ac8c7c3b925",
            "0x000000000000000000000000e909105ad23e37b851099d1df09a28fe31624108",
            "0x000000000000000000000000e03a1074c86cfedd5c142c4f04f1a1536e203543"
          ],
          "data": "0xffffffffffffffffffffffffffffffffffffffffffffffffffffffffffffffff",
          "blockHash": "0x9a3b15a53f39e47c5b3ca00d96683423cf540dd4aa6a85ad4cec7d136efdece8",
          "blockNumber": "0x9fe23c",
          "blockTimestamp": "0x69bc2cec",
          "transactionHash": "0xec7de8f91eb10f59421267ea611ec5d6c5a4a91058b63f804f7982eef5455e3d",
          "transactionIndex": "0x3a",
          "logIndex": "0x4a",
          "removed": false
        }
      ],
      "logsBloom": "0x00000000000000000000000000000000000000000000000000200000000000000000000000900000000000000000000000000000000000000000000000200000000000000000000000000000000000000000000000000000000000000000000000000008000000000000000080000000000000000000000000000000000000000000000000000000000010000000000000000000000000000000000000000000020000000000000000000000000000000000000000000000000000000000000000000000000000000000000000000000000000000000000000001000000002100010000000000000000000000000000000000000000000000000000000000000",
      "type": "0x2",
      "transactionHash": "0xec7de8f91eb10f59421267ea611ec5d6c5a4a91058b63f804f7982eef5455e3d",
      "transactionIndex": "0x3a",
      "blockHash": "0x9a3b15a53f39e47c5b3ca00d96683423cf540dd4aa6a85ad4cec7d136efdece8",
      "blockNumber": "0x9fe23c",
      "gasUsed": "0xb66e",
      "effectiveGasPrice": "0xf424a",
      "from": "0xe909105ad23e37b851099d1df09a28fe31624108",
      "to": "0xebbcbd2ae8a49e623fe5429f7be640e1458378b8",
      "contractAddress": null
    },
    {
      "status": "0x1",
      "cumulativeGasUsed": "0x854315",
      "logs": [
        {
          "address": "0x30b0f17e6d3c9b67e04ffb2dbb7353d28ccd3c58",
          "topics": [
            "0x8c5be1e5ebec7d5bd14f71427d1e84f3dd0314c0f7b2291e5b200ac8c7c3b925",
            "0x000000000000000000000000e909105ad23e37b851099d1df09a28fe31624108",
            "0x000000000000000000000000e03a1074c86cfedd5c142c4f04f1a1536e203543"
          ],
          "data": "0xffffffffffffffffffffffffffffffffffffffffffffffffffffffffffffffff",
          "blockHash": "0xc40bdb6a4ddacf14c853071b45850719cc2b4f4e6558a014fe80d5aada410c1b",
          "blockNumber": "0x9fe23d",
          "blockTimestamp": "0x69bc2cf8",
          "transactionHash": "0x490b77858ed407c491636f2eeeeeedd9b0aded1924d6eaf2d4f9cb79fd71dcee",
          "transactionIndex": "0x42",
          "logIndex": "0x73",
          "removed": false
        }
      ],
      "logsBloom": "0x00000000000000000000000000000000000000000000000000000000000000000000000000100000000000000000000000002000000000000000000000200000000000000000000000000000000000000000000000000000000000000000000000000008000000000000000080000000000000000000000000000000000000000000000000000000000010000000000000000000000000000000000000000000020000000000000000000000000000000000000000000000000000000000000000000000000000000000000000000000000000000000000000001000000000100010000000000000000000000000000000000000000000000000000000000008",
      "type": "0x2",
      "transactionHash": "0x490b77858ed407c491636f2eeeeeedd9b0aded1924d6eaf2d4f9cb79fd71dcee",
      "transactionIndex": "0x42",
      "blockHash": "0xc40bdb6a4ddacf14c853071b45850719cc2b4f4e6558a014fe80d5aada410c1b",
      "blockNumber": "0x9fe23d",
      "gasUsed": "0xb66e",
      "effectiveGasPrice": "0xf424a",
      "from": "0xe909105ad23e37b851099d1df09a28fe31624108",
      "to": "0x30b0f17e6d3c9b67e04ffb2dbb7353d28ccd3c58",
      "contractAddress": null
    },
    {
      "status": "0x1",
      "cumulativeGasUsed": "0x9ec1d9",
      "logs": [
        {
          "address": "0xe03a1074c86cfedd5c142c4f04f1a1536e203543",
          "topics": [
            "0xdd466e674ea557f56295e2d0218a125ea4b4f0f6f3307b95f85e6110838d6438",
            "0x1e4ef7787a8f94eaa3b7f57b0504c56817fe913f87023438dbf5e911043e428c",
            "0x00000000000000000000000030b0f17e6d3c9b67e04ffb2dbb7353d28ccd3c58",
            "0x000000000000000000000000ebbcbd2ae8a49e623fe5429f7be640e1458378b8"
          ],
          "data": "0x0000000000000000000000000000000000000000000000000000000000800000000000000000000000000000000000000000000000000000000000000000003c00000000000000000000000043a7d2f3a80a839c6d6bda285954882df12fb88800000000000000000000000000000000000000010000000000000000000000000000000000000000000000000000000000000000000000000000000000000000",
          "blockHash": "0x5548462069e68cb899691e644a841ea69158b0dde991af9f2eeeb190b1096ebb",
          "blockNumber": "0x9fe23e",
          "blockTimestamp": "0x69bc2d04",
          "transactionHash": "0x645b7ea43c27dfc5434df6db917a257507d50d66473a337bd68a324551f17e9e",
          "transactionIndex": "0x4a",
          "logIndex": "0x91",
          "removed": false
        },
        {
          "address": "0x9acc1180b4536e51917cf7de17306fb04d0e22c5",
          "topics": [
            "0xa3b98146d3ebae54df156862de54619aba184a59c534ecf3084db78390d79e8e",
            "0x7e1910e2561cad3904d25edb5dab63e1c26a44acba65359962bcd4d443fe269b",
            "0x00000000000000000000000043a7d2f3a80a839c6d6bda285954882df12fb888",
            "0x00000000000000000000000043a7d2f3a80a839c6d6bda285954882df12fb888"
          ],
          "data": "0x00000000000000000000000030b0f17e6d3c9b67e04ffb2dbb7353d28ccd3c58",
          "blockHash": "0x5548462069e68cb899691e644a841ea69158b0dde991af9f2eeeb190b1096ebb",
          "blockNumber": "0x9fe23e",
          "blockTimestamp": "0x69bc2d04",
          "transactionHash": "0x645b7ea43c27dfc5434df6db917a257507d50d66473a337bd68a324551f17e9e",
          "transactionIndex": "0x4a",
          "logIndex": "0x92",
          "removed": false
        },
        {
          "address": "0x43a7d2f3a80a839c6d6bda285954882df12fb888",
          "topics": [
            "0xd6c9456e1d1f149222b8c3529360bd6aa175d60db8227a3900b86d755d16022b",
            "0x00000000000000000000000030b0f17e6d3c9b67e04ffb2dbb7353d28ccd3c58"
          ],
          "data": "0x7e1910e2561cad3904d25edb5dab63e1c26a44acba65359962bcd4d443fe269b",
          "blockHash": "0x5548462069e68cb899691e644a841ea69158b0dde991af9f2eeeb190b1096ebb",
          "blockNumber": "0x9fe23e",
          "blockTimestamp": "0x69bc2d04",
          "transactionHash": "0x645b7ea43c27dfc5434df6db917a257507d50d66473a337bd68a324551f17e9e",
          "transactionIndex": "0x4a",
          "logIndex": "0x93",
          "removed": false
        },
        {
          "address": "0x9acc1180b4536e51917cf7de17306fb04d0e22c5",
          "topics": [
            "0xa3b98146d3ebae54df156862de54619aba184a59c534ecf3084db78390d79e8e",
            "0x66799b94d0add0ddfd2cd6fe738b4110e19a878764a38ff84061d580ba8a8278",
            "0x00000000000000000000000043a7d2f3a80a839c6d6bda285954882df12fb888",
            "0x00000000000000000000000043a7d2f3a80a839c6d6bda285954882df12fb888"
          ],
          "data": "0x000000000000000000000000ebbcbd2ae8a49e623fe5429f7be640e1458378b8",
          "blockHash": "0x5548462069e68cb899691e644a841ea69158b0dde991af9f2eeeb190b1096ebb",
          "blockNumber": "0x9fe23e",
          "blockTimestamp": "0x69bc2d04",
          "transactionHash": "0x645b7ea43c27dfc5434df6db917a257507d50d66473a337bd68a324551f17e9e",
          "transactionIndex": "0x4a",
          "logIndex": "0x94",
          "removed": false
        },
        {
          "address": "0x43a7d2f3a80a839c6d6bda285954882df12fb888",
          "topics": [
            "0xd6c9456e1d1f149222b8c3529360bd6aa175d60db8227a3900b86d755d16022b",
            "0x000000000000000000000000ebbcbd2ae8a49e623fe5429f7be640e1458378b8"
          ],
          "data": "0x66799b94d0add0ddfd2cd6fe738b4110e19a878764a38ff84061d580ba8a8278",
          "blockHash": "0x5548462069e68cb899691e644a841ea69158b0dde991af9f2eeeb190b1096ebb",
          "blockNumber": "0x9fe23e",
          "blockTimestamp": "0x69bc2d04",
          "transactionHash": "0x645b7ea43c27dfc5434df6db917a257507d50d66473a337bd68a324551f17e9e",
          "transactionIndex": "0x4a",
          "logIndex": "0x95",
          "removed": false
        }
      ],
      "logsBloom": "0x00000000000000000000020000000000000000000000000000004000800000200004000008000000000000010000000000000100020000000000000000008000000000000000000000000000000000000000000000004000000000000000080000000040000020020000000000000000000000000000100000000001000800000200010000000008000000000000000000000001000000040000000100200000000000000000000010000000000000000000000000000000000000000000040000000000000002040000000000000000000000000000000000000000000000011000000000000000000000000000000000000020000100000000000c20000000",
      "type": "0x2",
      "transactionHash": "0x645b7ea43c27dfc5434df6db917a257507d50d66473a337bd68a324551f17e9e",
      "transactionIndex": "0x4a",
      "blockHash": "0x5548462069e68cb899691e644a841ea69158b0dde991af9f2eeeb190b1096ebb",
      "blockNumber": "0x9fe23e",
      "gasUsed": "0x956f9",
      "effectiveGasPrice": "0xf424a",
      "from": "0xe909105ad23e37b851099d1df09a28fe31624108",
      "to": "0xe03a1074c86cfedd5c142c4f04f1a1536e203543",
      "contractAddress": null
    }
  ],
  "libraries": [],
  "pending": [],
  "returns": {},
  "timestamp": 1773939982574,
  "chain": 11155111,
  "commit": null
}