{
  "transactions": [
    {
      "hash": "0xc19919b36667d2a77a02c56307ae97e97c559a9949aec83ddd5e4b6053a5db1a",
      "transactionType": "CREATE",
      "contractName": "TestToken",
      "contractAddress": "0x7d307e213b3ffbb627f63e5a73f58938ec6107a0",
      "function": null,
      "arguments": [
        "TokenA",
        "TKA"
      ],
      "transaction": {
        "from": "0xe909105ad23e37b851099d1df09a28fe31624108",
        "gas": "0xb5a9f",
        "value": "0x0",
        "input": "0x608060405234801561000f575f80fd5b50604051610ba5380380610ba583398101604081905261002e9161026d565b8181600361003c8382610356565b5060046100498282610356565b5050506100663369d3c21bcecceda100000061006d60201b60201c565b5050610435565b6001600160a01b03821661009b5760405163ec442f0560e01b81525f60048201526024015b60405180910390fd5b6100a65f83836100aa565b5050565b6001600160a01b0383166100d4578060025f8282546100c99190610410565b909155506101449050565b6001600160a01b0383165f90815260208190526040902054818110156101265760405163391434e360e21b81526001600160a01b03851660048201526024810182905260448101839052606401610092565b6001600160a01b0384165f9081526020819052604090209082900390555b6001600160a01b0382166101605760028054829003905561017e565b6001600160a01b0382165f9081526020819052604090208054820190555b816001600160a01b0316836001600160a01b03167fddf252ad1be2c89b69c2b068fc378daa952ba7f163c4a11628f55a4df523b3ef836040516101c391815260200190565b60405180910390a3505050565b634e487b7160e01b5f52604160045260245ffd5b5f82601f8301126101f3575f80fd5b81516001600160401b0381111561020c5761020c6101d0565b604051601f8201601f19908116603f011681016001600160401b038111828210171561023a5761023a6101d0565b604052818152838201602001851015610251575f80fd5b8160208501602083015e5f918101602001919091529392505050565b5f806040838503121561027e575f80fd5b82516001600160401b03811115610293575f80fd5b61029f858286016101e4565b602085015190935090506001600160401b038111156102bc575f80fd5b6102c8858286016101e4565b9150509250929050565b600181811c908216806102e657607f821691505b60208210810361030457634e487b7160e01b5f52602260045260245ffd5b50919050565b601f82111561035157805f5260205f20601f840160051c8101602085101561032f5750805b601f840160051c820191505b8181101561034e575f815560010161033b565b50505b505050565b81516001600160401b0381111561036f5761036f6101d0565b6103838161037d84546102d2565b8461030a565b6020601f8211600181146103b5575f831561039e5750848201515b5f19600385901b1c1916600184901b17845561034e565b5f84815260208120601f198516915b828110156103e457878501518255602094850194600190920191016103c4565b508482101561040157868401515f19600387901b60f8161c191681555b50505050600190811b01905550565b8082018082111561042f57634e487b7160e01b5f52601160045260245ffd5b92915050565b610763806104425f395ff3fe608060405234801561000f575f80fd5b50600436106100b9575f3560e01c806340c10f191161007257806395d89b411161005857806395d89b411461016f578063a9059cbb14610177578063dd62ed3e1461018a575f80fd5b806340c10f191461013257806370a0823114610147575f80fd5b806318160ddd116100a257806318160ddd146100fe57806323b872dd14610110578063313ce56714610123575f80fd5b806306fdde03146100bd578063095ea7b3146100db575b5f80fd5b6100c56101c2565b6040516100d291906105d3565b60405180910390f35b6100ee6100e9366004610623565b610252565b60405190151581526020016100d2565b6002545b6040519081526020016100d2565b6100ee61011e36600461064b565b61026b565b604051601281526020016100d2565b610145610140366004610623565b61028e565b005b610102610155366004610685565b6001600160a01b03165f9081526020819052604090205490565b6100c561029c565b6100ee610185366004610623565b6102ab565b6101026101983660046106a5565b6001600160a01b039182165f90815260016020908152604080832093909416825291909152205490565b6060600380546101d1906106d6565b80601f01602080910402602001604051908101604052809291908181526020018280546101fd906106d6565b80156102485780601f1061021f57610100808354040283529160200191610248565b820191905f5260205f20905b81548152906001019060200180831161022b57829003601f168201915b5050505050905090565b5f3361025f8185856102b8565b60019150505b92915050565b5f336102788582856102ca565b61028385858561034a565b506001949350505050565b61029882826103a7565b5050565b6060600480546101d1906106d6565b5f3361025f81858561034a565b6102c583838360016103db565b505050565b6001600160a01b038381165f908152600160209081526040808320938616835292905220545f198114610344578181101561033657604051637dc7a0d960e11b81526001600160a01b038416600482015260248101829052604481018390526064015b60405180910390fd5b61034484848484035f6103db565b50505050565b6001600160a01b03831661037357604051634b637e8f60e11b81525f600482015260240161032d565b6001600160a01b03821661039c5760405163ec442f0560e01b81525f600482015260240161032d565b6102c58383836104ad565b6001600160a01b0382166103d05760405163ec442f0560e01b81525f600482015260240161032d565b6102985f83836104ad565b6001600160a01b0384166104045760405163e602df0560e01b81525f600482015260240161032d565b6001600160a01b03831661042d57604051634a1406b160e11b81525f600482015260240161032d565b6001600160a01b038085165f908152600160209081526040808320938716835292905220829055801561034457826001600160a01b0316846001600160a01b03167f8c5be1e5ebec7d5bd14f71427d1e84f3dd0314c0f7b2291e5b200ac8c7c3b9258460405161049f91815260200190565b60405180910390a350505050565b6001600160a01b0383166104d7578060025f8282546104cc919061070e565b909155506105479050565b6001600160a01b0383165f90815260208190526040902054818110156105295760405163391434e360e21b81526001600160a01b0385166004820152602481018290526044810183905260640161032d565b6001600160a01b0384165f9081526020819052604090209082900390555b6001600160a01b03821661056357600280548290039055610581565b6001600160a01b0382165f9081526020819052604090208054820190555b816001600160a01b0316836001600160a01b03167fddf252ad1be2c89b69c2b068fc378daa952ba7f163c4a11628f55a4df523b3ef836040516105c691815260200190565b60405180910390a3505050565b602081525f82518060208401528060208501604085015e5f604082850101526040601f19601f83011684010191505092915050565b80356001600160a01b038116811461061e575f80fd5b919050565b5f8060408385031215610634575f80fd5b61063d83610608565b946020939093013593505050565b5f805f6060848603121561065d575f80fd5b61066684610608565b925061067460208501610608565b929592945050506040919091013590565b5f60208284031215610695575f80fd5b61069e82610608565b9392505050565b5f80604083850312156106b6575f80fd5b6106bf83610608565b91506106cd60208401610608565b90509250929050565b600181811c908216806106ea57607f821691505b60208210810361070857634e487b7160e01b5f52602260045260245ffd5b50919050565b8082018082111561026557634e487b7160e01b5f52601160045260245ffdfea2646970667358221220ec06fb0c47413fd425b663292097237f2ae3e238ecf606085153eed0f3cc80c964736f6c634300081a0033000000000000000000000000000000000000000000000000000000000000004000000000000000000000000000000000000000000000000000000000000000800000000000000000000000000000000000000000000000000000000000000006546f6b656e4100000000000000000000000000000000000000000000000000000000000000000000000000000000000000000000000000000000000000000003544b410000000000000000000000000000000000000000000000000000000000",
        "nonce": "0xfa",
        "chainId": "0xaa36a7"
      },
      "additionalContracts": [],
      "isFixedGasLimit": false
    },
    {
      "hash": "0xc925c5b416b39cec3df2b998871b4a6850f894fad8572160f124c8f014392421",
      "transactionType": "CREATE",
      "contractName": "TestToken",
      "contractAddress": "0xc29a8dc921893bbdf3e38cfbc1b5dd9ff679e1fe",
      "function": null,
      "arguments": [
        "TokenB",
        "TKB"
      ],
      "transaction": {
        "from": "0xe909105ad23e37b851099d1df09a28fe31624108",
        "gas": "0xb5a9f",
        "value": "0x0",
        "input": "0x608060405234801561000f575f80fd5b50604051610ba5380380610ba583398101604081905261002e9161026d565b8181600361003c8382610356565b5060046100498282610356565b5050506100663369d3c21bcecceda100000061006d60201b60201c565b5050610435565b6001600160a01b03821661009b5760405163ec442f0560e01b81525f60048201526024015b60405180910390fd5b6100a65f83836100aa565b5050565b6001600160a01b0383166100d4578060025f8282546100c99190610410565b909155506101449050565b6001600160a01b0383165f90815260208190526040902054818110156101265760405163391434e360e21b81526001600160a01b03851660048201526024810182905260448101839052606401610092565b6001600160a01b0384165f9081526020819052604090209082900390555b6001600160a01b0382166101605760028054829003905561017e565b6001600160a01b0382165f9081526020819052604090208054820190555b816001600160a01b0316836001600160a01b03167fddf252ad1be2c89b69c2b068fc378daa952ba7f163c4a11628f55a4df523b3ef836040516101c391815260200190565b60405180910390a3505050565b634e487b7160e01b5f52604160045260245ffd5b5f82601f8301126101f3575f80fd5b81516001600160401b0381111561020c5761020c6101d0565b604051601f8201601f19908116603f011681016001600160401b038111828210171561023a5761023a6101d0565b604052818152838201602001851015610251575f80fd5b8160208501602083015e5f918101602001919091529392505050565b5f806040838503121561027e575f80fd5b82516001600160401b03811115610293575f80fd5b61029f858286016101e4565b602085015190935090506001600160401b038111156102bc575f80fd5b6102c8858286016101e4565b9150509250929050565b600181811c908216806102e657607f821691505b60208210810361030457634e487b7160e01b5f52602260045260245ffd5b50919050565b601f82111561035157805f5260205f20601f840160051c8101602085101561032f5750805b601f840160051c820191505b8181101561034e575f815560010161033b565b50505b505050565b81516001600160401b0381111561036f5761036f6101d0565b6103838161037d84546102d2565b8461030a565b6020601f8211600181146103b5575f831561039e5750848201515b5f19600385901b1c1916600184901b17845561034e565b5f84815260208120601f198516915b828110156103e457878501518255602094850194600190920191016103c4565b508482101561040157868401515f19600387901b60f8161c191681555b50505050600190811b01905550565b8082018082111561042f57634e487b7160e01b5f52601160045260245ffd5b92915050565b610763806104425f395ff3fe608060405234801561000f575f80fd5b50600436106100b9575f3560e01c806340c10f191161007257806395d89b411161005857806395d89b411461016f578063a9059cbb14610177578063dd62ed3e1461018a575f80fd5b806340c10f191461013257806370a0823114610147575f80fd5b806318160ddd116100a257806318160ddd146100fe57806323b872dd14610110578063313ce56714610123575f80fd5b806306fdde03146100bd578063095ea7b3146100db575b5f80fd5b6100c56101c2565b6040516100d291906105d3565b60405180910390f35b6100ee6100e9366004610623565b610252565b60405190151581526020016100d2565b6002545b6040519081526020016100d2565b6100ee61011e36600461064b565b61026b565b604051601281526020016100d2565b610145610140366004610623565b61028e565b005b610102610155366004610685565b6001600160a01b03165f9081526020819052604090205490565b6100c561029c565b6100ee610185366004610623565b6102ab565b6101026101983660046106a5565b6001600160a01b039182165f90815260016020908152604080832093909416825291909152205490565b6060600380546101d1906106d6565b80601f01602080910402602001604051908101604052809291908181526020018280546101fd906106d6565b80156102485780601f1061021f57610100808354040283529160200191610248565b820191905f5260205f20905b81548152906001019060200180831161022b57829003601f168201915b5050505050905090565b5f3361025f8185856102b8565b60019150505b92915050565b5f336102788582856102ca565b61028385858561034a565b506001949350505050565b61029882826103a7565b5050565b6060600480546101d1906106d6565b5f3361025f81858561034a565b6102c583838360016103db565b505050565b6001600160a01b038381165f908152600160209081526040808320938616835292905220545f198114610344578181101561033657604051637dc7a0d960e11b81526001600160a01b038416600482015260248101829052604481018390526064015b60405180910390fd5b61034484848484035f6103db565b50505050565b6001600160a01b03831661037357604051634b637e8f60e11b81525f600482015260240161032d565b6001600160a01b03821661039c5760405163ec442f0560e01b81525f600482015260240161032d565b6102c58383836104ad565b6001600160a01b0382166103d05760405163ec442f0560e01b81525f600482015260240161032d565b6102985f83836104ad565b6001600160a01b0384166104045760405163e602df0560e01b81525f600482015260240161032d565b6001600160a01b03831661042d57604051634a1406b160e11b81525f600482015260240161032d565b6001600160a01b038085165f908152600160209081526040808320938716835292905220829055801561034457826001600160a01b0316846001600160a01b03167f8c5be1e5ebec7d5bd14f71427d1e84f3dd0314c0f7b2291e5b200ac8c7c3b9258460405161049f91815260200190565b60405180910390a350505050565b6001600160a01b0383166104d7578060025f8282546104cc919061070e565b909155506105479050565b6001600160a01b0383165f90815260208190526040902054818110156105295760405163391434e360e21b81526001600160a01b0385166004820152602481018290526044810183905260640161032d565b6001600160a01b0384165f9081526020819052604090209082900390555b6001600160a01b03821661056357600280548290039055610581565b6001600160a01b0382165f9081526020819052604090208054820190555b816001600160a01b0316836001600160a01b03167fddf252ad1be2c89b69c2b068fc378daa952ba7f163c4a11628f55a4df523b3ef836040516105c691815260200190565b60405180910390a3505050565b602081525f82518060208401528060208501604085015e5f604082850101526040601f19601f83011684010191505092915050565b80356001600160a01b038116811461061e575f80fd5b919050565b5f8060408385031215610634575f80fd5b61063d83610608565b946020939093013593505050565b5f805f6060848603121561065d575f80fd5b61066684610608565b925061067460208501610608565b929592945050506040919091013590565b5f60208284031215610695575f80fd5b61069e82610608565b9392505050565b5f80604083850312156106b6575f80fd5b6106bf83610608565b91506106cd60208401610608565b90509250929050565b600181811c908216806106ea57607f821691505b60208210810361070857634e487b7160e01b5f52602260045260245ffd5b50919050565b8082018082111561026557634e487b7160e01b5f52601160045260245ffdfea2646970667358221220ec06fb0c47413fd425b663292097237f2ae3e238ecf606085153eed0f3cc80c964736f6c634300081a0033000000000000000000000000000000000000000000000000000000000000004000000000000000000000000000000000000000000000000000000000000000800000000000000000000000000000000000000000000000000000000000000006546f6b656e4200000000000000000000000000000000000000000000000000000000000000000000000000000000000000000000000000000000000000000003544b420000000000000000000000000000000000000000000000000000000000",
        "nonce": "0xfb",
        "chainId": "0xaa36a7"
      },
      "additionalContracts": [],
      "isFixedGasLimit": false
    },
    {
      "hash": "0xd1815c3dda8265c2a072ca3169d169b82dc8257331307be4d974b1f6906bc308",
      "transactionType": "CALL",
      "contractName": "TestToken",
      "contractAddress": "0x7d307e213b3ffbb627f63e5a73f58938ec6107a0",
      "function": "mint(address,uint256)",
      "arguments": [
        "0xE909105aD23e37b851099d1dF09A28Fe31624108",
        "100000000000000000000"
      ],
      "transaction": {
        "from": "0xe909105ad23e37b851099d1df09a28fe31624108",
        "to": "0x7d307e213b3ffbb627f63e5a73f58938ec6107a0",
        "gas": "0xc3ab",
        "value": "0x0",
        "input": "0x40c10f19000000000000000000000000e909105ad23e37b851099d1df09a28fe316241080000000000000000000000000000000000000000000000056bc75e2d63100000",
        "nonce": "0xfc",
        "chainId": "0xaa36a7"
      },
      "additionalContracts": [],
      "isFixedGasLimit": false
    },
    {
      "hash": "0x1da8aa5b80f8cbf30523eb64726e0e32816f05fbe5d90b7eaf4533ba8ccfc58f",
      "transactionType": "CALL",
      "contractName": "TestToken",
      "contractAddress": "0xc29a8dc921893bbdf3e38cfbc1b5dd9ff679e1fe",
      "function": "mint(address,uint256)",
      "arguments": [
        "0xE909105aD23e37b851099d1dF09A28Fe31624108",
        "100000000000000000000"
      ],
      "transaction": {
        "from": "0xe909105ad23e37b851099d1df09a28fe31624108",
        "to": "0xc29a8dc921893bbdf3e38cfbc1b5dd9ff679e1fe",
        "gas": "0xc3ab",
        "value": "0x0",
        "input": "0x40c10f19000000000000000000000000e909105ad23e37b851099d1df09a28fe316241080000000000000000000000000000000000000000000000056bc75e2d63100000",
        "nonce": "0xfd",
        "chainId": "0xaa36a7"
      },
      "additionalContracts": [],
      "isFixedGasLimit": false
    },
    {
      "hash": "0x56ad3a8d6fcf1a6cab64731b5cd1346a05ac887b5518ced5e4a45390c8c2651d",
      "transactionType": "CALL",
      "contractName": "TestToken",
      "contractAddress": "0x7d307e213b3ffbb627f63e5a73f58938ec6107a0",
      "function": "approve(address,uint256)",
      "arguments": [
        "0xE03A1074c86CFeDd5C142C4F04F1a1536e203543",
        "115792089237316195423570985008687907853269984665640564039457584007913129639935"
      ],
      "transaction": {
        "from": "0xe909105ad23e37b851099d1df09a28fe31624108",
        "to": "0x7d307e213b3ffbb627f63e5a73f58938ec6107a0",
        "gas": "0xfbfa",
        "value": "0x0",
        "input": "0x095ea7b3000000000000000000000000e03a1074c86cfedd5c142c4f04f1a1536e203543ffffffffffffffffffffffffffffffffffffffffffffffffffffffffffffffff",
        "nonce": "0xfe",
        "chainId": "0xaa36a7"
      },
      "additionalContracts": [],
      "isFixedGasLimit": false
    },
    {
      "hash": "0xe463567927b99cf813c507913c59305297153c47775479e575da44d3d968e005",
      "transactionType": "CALL",
      "contractName": "TestToken",
      "contractAddress": "0xc29a8dc921893bbdf3e38cfbc1b5dd9ff679e1fe",
      "function": "approve(address,uint256)",
      "arguments": [
        "0xE03A1074c86CFeDd5C142C4F04F1a1536e203543",
        "115792089237316195423570985008687907853269984665640564039457584007913129639935"
      ],
      "transaction": {
        "from": "0xe909105ad23e37b851099d1df09a28fe31624108",
        "to": "0xc29a8dc921893bbdf3e38cfbc1b5dd9ff679e1fe",
        "gas": "0xfbfa",
        "value": "0x0",
        "input": "0x095ea7b3000000000000000000000000e03a1074c86cfedd5c142c4f04f1a1536e203543ffffffffffffffffffffffffffffffffffffffffffffffffffffffffffffffff",
        "nonce": "0xff",
        "chainId": "0xaa36a7"
      },
      "additionalContracts": [],
      "isFixedGasLimit": false
    },
    {
      "hash": "0xfdca7f89d14c5843e5de182b46116261d11968c103cb1544a1ae2847a03bd6ea",
      "transactionType": "CALL",
      "contractName": null,
      "contractAddress": "0xe03a1074c86cfedd5c142c4f04f1a1536e203543",
      "function": "initialize((address,address,uint24,int24,address),uint160)",
      "arguments": [
        "(0x7D307e213B3fFbB627f63e5A73F58938EC6107A0, 0xc29A8dC921893bbDf3E38CfBc1b5dd9ff679E1FE, 8388608, 60, 0x1387bb54fb1f85f4B99b637F9ec36ca645D87888)",
        "79228162514264337593543950336"
      ],
      "transaction": {
        "from": "0xe909105ad23e37b851099d1df09a28fe31624108",
        "to": "0xe03a1074c86cfedd5c142c4f04f1a1536e203543",
        "gas": "0xcd56b",
        "value": "0x0",
        "input": "0x6276cbbe0000000000000000000000007d307e213b3ffbb627f63e5a73f58938ec6107a0000000000000000000000000c29a8dc921893bbdf3e38cfbc1b5dd9ff679e1fe0000000000000000000000000000000000000000000000000000000000800000000000000000000000000000000000000000000000000000000000000000003c0000000000000000000000001387bb54fb1f85f4b99b637f9ec36ca645d878880000000000000000000000000000000000000001000000000000000000000000",
        "nonce": "0x100",
        "chainId": "0xaa36a7"
      },
      "additionalContracts": [],
      "isFixedGasLimit": false
    }
  ],
  "receipts": [
    {
      "status": "0x1",
      "cumulativeGasUsed": "0xb6fb34",
      "logs": [
        {
          "address": "0x7d307e213b3ffbb627f63e5a73f58938ec6107a0",
          "topics": [
            "0xddf252ad1be2c89b69c2b068fc378daa952ba7f163c4a11628f55a4df523b3ef",
            "0x0000000000000000000000000000000000000000000000000000000000000000",
            "0x000000000000000000000000e909105ad23e37b851099d1df09a28fe31624108"
          ],
          "data": "0x00000000000000000000000000000000000000000000d3c21bcecceda1000000",
          "blockHash": "0xf4258ac2737b9d170c82503eb511dbfe2618f9472a76b85b92d565b4435a426d",
          "blockNumber": "0x9fe0fb",
          "blockTimestamp": "0x69bc1d5c",
          "transactionHash": "0xc19919b36667d2a77a02c56307ae97e97c559a9949aec83ddd5e4b6053a5db1a",
          "transactionIndex": "0x59",
          "logIndex": "0xa8",
          "removed": false
        }
      ],
      "logsBloom": "0x00000000000000000000000000000000000000000000000000000000000000000000000000100000000000000000000000000000000000000000000000000000000000000000000000000008000000000000000000000000000000000000000000000008020000000000000000000800000000000000000000000010000000000000000000000000000000000000000000000000000000000000000000000000000000000000000000000000010000000000000000000000000000000000000000000002000000000000000000000000000000000000000000000000000020100000000000000000000000400000000000000000000000000000200000000000",
      "type": "0x2",
      "transactionHash": "0xc19919b36667d2a77a02c56307ae97e97c559a9949aec83ddd5e4b6053a5db1a",
      "transactionIndex": "0x59",
      "blockHash": "0xf4258ac2737b9d170c82503eb511dbfe2618f9472a76b85b92d565b4435a426d",
      "blockNumber": "0x9fe0fb",
      "gasUsed": "0x8bbdd",
      "effectiveGasPrice": "0xf424b",
      "from": "0xe909105ad23e37b851099d1df09a28fe31624108",
      "to": null,
      "contractAddress": "0x7d307e213b3ffbb627f63e5a73f58938ec6107a0"
    },
    {
      "status": "0x1",
      "cumulativeGasUsed": "0x7cffb7",
      "logs": [
        {
          "address": "0xc29a8dc921893bbdf3e38cfbc1b5dd9ff679e1fe",
          "topics": [
            "0xddf252ad1be2c89b69c2b068fc378daa952ba7f163c4a11628f55a4df523b3ef",
            "0x0000000000000000000000000000000000000000000000000000000000000000",
            "0x000000000000000000000000e909105ad23e37b851099d1df09a28fe31624108"
          ],
          "data": "0x00000000000000000000000000000000000000000000d3c21bcecceda1000000",
          "blockHash": "0x2bec421e891d99c8ec3e766c1d35a8e3feb44382a9588e4717194a98268a1807",
          "blockNumber": "0x9fe0fc",
          "blockTimestamp": "0x69bc1d68",
          "transactionHash": "0xc925c5b416b39cec3df2b998871b4a6850f894fad8572160f124c8f014392421",
          "transactionIndex": "0x4e",
          "logIndex": "0xb0",
          "removed": false
        }
      ],
      "logsBloom": "0x00000000000000000000000000000000000001000000000000000000000000000000000000100000000000000000000000000000000000000000000000000000000000000000000000000008000001000000000000000400000000000000000000000008020000000000000000000800000000000000000000000010000000000000000000000000000000000000000000000000000000000000000000000000000000000000000000000000000000000000000000000000000000000000000000000002000000000000000000000000000000000000000000000000000020100000000000000000000000000000000000000000000000000000000000000000",
      "type": "0x2",
      "transactionHash": "0xc925c5b416b39cec3df2b998871b4a6850f894fad8572160f124c8f014392421",
      "transactionIndex": "0x4e",
      "blockHash": "0x2bec421e891d99c8ec3e766c1d35a8e3feb44382a9588e4717194a98268a1807",
      "blockNumber": "0x9fe0fc",
      "gasUsed": "0x8bbdd",
      "effectiveGasPrice": "0xf424b",
      "from": "0xe909105ad23e37b851099d1df09a28fe31624108",
      "to": null,
      "contractAddress": "0xc29a8dc921893bbdf3e38cfbc1b5dd9ff679e1fe"
    },
    {
      "status": "0x1",
      "cumulativeGasUsed": "0x5a82f3",
      "logs": [
        {
          "address": "0x7d307e213b3ffbb627f63e5a73f58938ec6107a0",
          "topics": [
            "0xddf252ad1be2c89b69c2b068fc378daa952ba7f163c4a11628f55a4df523b3ef",
            "0x0000000000000000000000000000000000000000000000000000000000000000",
            "0x000000000000000000000000e909105ad23e37b851099d1df09a28fe31624108"
          ],
          "data": "0x0000000000000000000000000000000000000000000000056bc75e2d63100000",
          "blockHash": "0x77f94a0cdadd895fc68fa67db46265a68d3668f22e909dc681348a11f364e857",
          "blockNumber": "0x9fe0fd",
          "blockTimestamp": "0x69bc1d74",
          "transactionHash": "0xd1815c3dda8265c2a072ca3169d169b82dc8257331307be4d974b1f6906bc308",
          "transactionIndex": "0x3b",
          "logIndex": "0x60",
          "removed": false
        }
      ],
      "logsBloom": "0x00000000000000000000000000000000000000000000000000000000000000000000000000100000000000000000000000000000000000000000000000000000000000000000000000000008000000000000000000000000000000000000000000000008020000000000000000000800000000000000000000000010000000000000000000000000000000000000000000000000000000000000000000000000000000000000000000000000010000000000000000000000000000000000000000000002000000000000000000000000000000000000000000000000000020100000000000000000000000400000000000000000000000000000200000000000",
      "type": "0x2",
      "transactionHash": "0xd1815c3dda8265c2a072ca3169d169b82dc8257331307be4d974b1f6906bc308",
      "transactionIndex": "0x3b",
      "blockHash": "0x77f94a0cdadd895fc68fa67db46265a68d3668f22e909dc681348a11f364e857",
      "blockNumber": "0x9fe0fd",
      "gasUsed": "0x85cb",
      "effectiveGasPrice": "0xf424b",
      "from": "0xe909105ad23e37b851099d1df09a28fe31624108",
      "to": "0x7d307e213b3ffbb627f63e5a73f58938ec6107a0",
      "contractAddress": null
    },
    {
      "status": "0x1",
      "cumulativeGasUsed": "0xc73587",
      "logs": [
        {
          "address": "0xc29a8dc921893bbdf3e38cfbc1b5dd9ff679e1fe",
          "topics": [
            "0xddf252ad1be2c89b69c2b068fc378daa952ba7f163c4a11628f55a4df523b3ef",
            "0x0000000000000000000000000000000000000000000000000000000000000000",
            "0x000000000000000000000000e909105ad23e37b851099d1df09a28fe31624108"
          ],
          "data": "0x0000000000000000000000000000000000000000000000056bc75e2d63100000",
          "blockHash": "0xd7858404b7c7dfa74224d935202893f4bc1f87a23a4f4204f28db41d5cc96a5c",
          "blockNumber": "0x9fe0fe",
          "blockTimestamp": "0x69bc1d80",
          "transactionHash": "0x1da8aa5b80f8cbf30523eb64726e0e32816f05fbe5d90b7eaf4533ba8ccfc58f",
          "transactionIndex": "0x4c",
          "logIndex": "0x7d",
          "removed": false
        }
      ],
      "logsBloom": "0x00000000000000000000000000000000000001000000000000000000000000000000000000100000000000000000000000000000000000000000000000000000000000000000000000000008000001000000000000000400000000000000000000000008020000000000000000000800000000000000000000000010000000000000000000000000000000000000000000000000000000000000000000000000000000000000000000000000000000000000000000000000000000000000000000000002000000000000000000000000000000000000000000000000000020100000000000000000000000000000000000000000000000000000000000000000",
      "type": "0x2",
      "transactionHash": "0x1da8aa5b80f8cbf30523eb64726e0e32816f05fbe5d90b7eaf4533ba8ccfc58f",
      "transactionIndex": "0x4c",
      "blockHash": "0xd7858404b7c7dfa74224d935202893f4bc1f87a23a4f4204f28db41d5cc96a5c",
      "blockNumber": "0x9fe0fe",
      "gasUsed": "0x85cb",
      "effectiveGasPrice": "0xf424b",
      "from": "0xe909105ad23e37b851099d1df09a28fe31624108",
      "to": "0xc29a8dc921893bbdf3e38cfbc1b5dd9ff679e1fe",
      "contractAddress": null
    },
    {
      "status": "0x1",
      "cumulativeGasUsed": "0x1524a97",
      "logs": [
        {
          "address": "0x7d307e213b3ffbb627f63e5a73f58938ec6107a0",
          "topics": [
            "0x8c5be1e5ebec7d5bd14f71427d1e84f3dd0314c0f7b2291e5b200ac8c7c3b925",
            "0x000000000000000000000000e909105ad23e37b851099d1df09a28fe31624108",
            "0x000000000000000000000000e03a1074c86cfedd5c142c4f04f1a1536e203543"
          ],
          "data": "0xffffffffffffffffffffffffffffffffffffffffffffffffffffffffffffffff",
          "blockHash": "0xc7f7b44b02fa94fa86fe6dc498e3339c868a630524258bb29d1cde2200bcb9a5",
          "blockNumber": "0x9fe0ff",
          "blockTimestamp": "0x69bc1d8c",
          "transactionHash": "0x56ad3a8d6fcf1a6cab64731b5cd1346a05ac887b5518ced5e4a45390c8c2651d",
          "transactionIndex": "0x81",
          "logIndex": "0xc6",
          "removed": false
        }
      ],
      "logsBloom": "0x00000000000000000000000000000000000000000000000000000000000000000000000000100000000000000000000000000000000000000000000000200000000000000000000000000000000000000000000000000000000000000000000000000008000000000000000080000000000000000000000000000000000000000000000000000000000010000000000000000000000000000000000000000000020000000000000000000000010000000000000000000000000000000000000000000000000000000000000000000000000000000000000000001000000000100010000000000000000000400000000000000000000000000000200000000000",
      "type": "0x2",
      "transactionHash": "0x56ad3a8d6fcf1a6cab64731b5cd1346a05ac887b5518ced5e4a45390c8c2651d",
      "transactionIndex": "0x81",
      "blockHash": "0xc7f7b44b02fa94fa86fe6dc498e3339c868a630524258bb29d1cde2200bcb9a5",
      "blockNumber": "0x9fe0ff",
      "gasUsed": "0xb66e",
      "effectiveGasPrice": "0xf424b",
      "from": "0xe909105ad23e37b851099d1df09a28fe31624108",
      "to": "0x7d307e213b3ffbb627f63e5a73f58938ec6107a0",
      "contractAddress": null
    },
    {
      "status": "0x1",
      "cumulativeGasUsed": "0x943406",
      "logs": [
        {
          "address": "0xc29a8dc921893bbdf3e38cfbc1b5dd9ff679e1fe",
          "topics": [
            "0x8c5be1e5ebec7d5bd14f71427d1e84f3dd0314c0f7b2291e5b200ac8c7c3b925",
            "0x000000000000000000000000e909105ad23e37b851099d1df09a28fe31624108",
            "0x000000000000000000000000e03a1074c86cfedd5c142c4f04f1a1536e203543"
          ],
          "data": "0xffffffffffffffffffffffffffffffffffffffffffffffffffffffffffffffff",
          "blockHash": "0x9c3f17bc05a92aa58a74116250f9e47772425d0b23e02acbeacd37aa96699899",
          "blockNumber": "0x9fe100",
          "blockTimestamp": "0x69bc1d98",
          "transactionHash": "0xe463567927b99cf813c507913c59305297153c47775479e575da44d3d968e005",
          "transactionIndex": "0x58",
          "logIndex": "0xc7",
          "removed": false
        }
      ],
      "logsBloom": "0x00000000000000000000000000000000000001000000000000000000000000000000000000100000000000000000000000000000000000000000000000200000000000000000000000000000000001000000000000000400000000000000000000000008000000000000000080000000000000000000000000000000000000000000000000000000000010000000000000000000000000000000000000000000020000000000000000000000000000000000000000000000000000000000000000000000000000000000000000000000000000000000000000001000000000100010000000000000000000000000000000000000000000000000000000000000",
      "type": "0x2",
      "transactionHash": "0xe463567927b99cf813c507913c59305297153c47775479e575da44d3d968e005",
      "transactionIndex": "0x58",
      "blockHash": "0x9c3f17bc05a92aa58a74116250f9e47772425d0b23e02acbeacd37aa96699899",
      "blockNumber": "0x9fe100",
      "gasUsed": "0xb66e",
      "effectiveGasPrice": "0xf424b",
      "from": "0xe909105ad23e37b851099d1df09a28fe31624108",
      "to": "0xc29a8dc921893bbdf3e38cfbc1b5dd9ff679e1fe",
      "contractAddress": null
    },
    {
      "status": "0x1",
      "cumulativeGasUsed": "0xa5411a",
      "logs": [
        {
          "address": "0xe03a1074c86cfedd5c142c4f04f1a1536e203543",
          "topics": [
            "0xdd466e674ea557f56295e2d0218a125ea4b4f0f6f3307b95f85e6110838d6438",
            "0x60417bd726e57b2a7996d13efcfbcc5f24b48e60feaf740c4b18b5fb847e1f50",
            "0x0000000000000000000000007d307e213b3ffbb627f63e5a73f58938ec6107a0",
            "0x000000000000000000000000c29a8dc921893bbdf3e38cfbc1b5dd9ff679e1fe"
          ],
          "data": "0x0000000000000000000000000000000000000000000000000000000000800000000000000000000000000000000000000000000000000000000000000000003c0000000000000000000000001387bb54fb1f85f4b99b637f9ec36ca645d8788800000000000000000000000000000000000000010000000000000000000000000000000000000000000000000000000000000000000000000000000000000000",
          "blockHash": "0x8a008fed3325ae2c88ec24125ff35da3633f191962d67d9e03d34ae12595ccb7",
          "blockNumber": "0x9fe101",
          "blockTimestamp": "0x69bc1da4",
          "transactionHash": "0xfdca7f89d14c5843e5de182b46116261d11968c103cb1544a1ae2847a03bd6ea",
          "transactionIndex": "0x61",
          "logIndex": "0xa1",
          "removed": false
        },
        {
          "address": "0x9acc1180b4536e51917cf7de17306fb04d0e22c5",
          "topics": [
            "0xa3b98146d3ebae54df156862de54619aba184a59c534ecf3084db78390d79e8e",
            "0x373ab0f65d4aa705921b0279572e3f97384116c8359de3bd4803fa3f971c7131",
            "0x0000000000000000000000001387bb54fb1f85f4b99b637f9ec36ca645d87888",
            "0x0000000000000000000000001387bb54fb1f85f4b99b637f9ec36ca645d87888"
          ],
          "data": "0x0000000000000000000000007d307e213b3ffbb627f63e5a73f58938ec6107a0",
          "blockHash": "0x8a008fed3325ae2c88ec24125ff35da3633f191962d67d9e03d34ae12595ccb7",
          "blockNumber": "0x9fe101",
          "blockTimestamp": "0x69bc1da4",
          "transactionHash": "0xfdca7f89d14c5843e5de182b46116261d11968c103cb1544a1ae2847a03bd6ea",
          "transactionIndex": "0x61",
          "logIndex": "0xa2",
          "removed": false
        },
        {
          "address": "0x1387bb54fb1f85f4b99b637f9ec36ca645d87888",
          "topics": [
            "0xd6c9456e1d1f149222b8c3529360bd6aa175d60db8227a3900b86d755d16022b",
            "0x0000000000000000000000007d307e213b3ffbb627f63e5a73f58938ec6107a0"
          ],
          "data": "0x373ab0f65d4aa705921b0279572e3f97384116c8359de3bd4803fa3f971c7131",
          "blockHash": "0x8a008fed3325ae2c88ec24125ff35da3633f191962d67d9e03d34ae12595ccb7",
          "blockNumber": "0x9fe101",
          "blockTimestamp": "0x69bc1da4",
          "transactionHash": "0xfdca7f89d14c5843e5de182b46116261d11968c103cb1544a1ae2847a03bd6ea",
          "transactionIndex": "0x61",
          "logIndex": "0xa3",
          "removed": false
        },
        {
          "address": "0x9acc1180b4536e51917cf7de17306fb04d0e22c5",
          "topics": [
            "0xa3b98146d3ebae54df156862de54619aba184a59c534ecf3084db78390d79e8e",
            "0x7c54bebb2b566521f7b2c3f34d310bb8ad2ce347523e87c29a40f07ff3836671",
            "0x0000000000000000000000001387bb54fb1f85f4b99b637f9ec36ca645d87888",
            "0x0000000000000000000000001387bb54fb1f85f4b99b637f9ec36ca645d87888"
          ],
          "data": "0x000000000000000000000000c29a8dc921893bbdf3e38cfbc1b5dd9ff679e1fe",
          "blockHash": "0x8a008fed3325ae2c88ec24125ff35da3633f191962d67d9e03d34ae12595ccb7",
          "blockNumber": "0x9fe101",
          "blockTimestamp": "0x69bc1da4",
          "transactionHash": "0xfdca7f89d14c5843e5de182b46116261d11968c103cb1544a1ae2847a03bd6ea",
          "transactionIndex": "0x61",
          "logIndex": "0xa4",
          "removed": false
        },
        {
          "address": "0x1387bb54fb1f85f4b99b637f9ec36ca645d87888",
          "topics": [
            "0xd6c9456e1d1f149222b8c3529360bd6aa175d60db8227a3900b86d755d16022b",
            "0x000000000000000000000000c29a8dc921893bbdf3e38cfbc1b5dd9ff679e1fe"
          ],
          "data": "0x7c54bebb2b566521f7b2c3f34d310bb8ad2ce347523e87c29a40f07ff3836671",
          "blockHash": "0x8a008fed3325ae2c88ec24125ff35da3633f191962d67d9e03d34ae12595ccb7",
          "blockNumber": "0x9fe101",
          "blockTimestamp": "0x69bc1da4",
          "transactionHash": "0xfdca7f89d14c5843e5de182b46116261d11968c103cb1544a1ae2847a03bd6ea",
          "transactionIndex": "0x61",
          "logIndex": "0xa5",
          "removed": false
        }
      ],
      "logsBloom": "0x00100000000000000000000000000000000000000000000000000000000000200000000000000000000000010000000000000100000000000000200000000000000000000000000000000000000000000800004000000000000000000000484000000000000000000000000000000000020000000000100000000001000000000000010008000008000020000000000000004001000000000000000000220000000000000000000000000000000000000000000000000000000040000000040000000820000000000000000000000000000020000000000000000200000000011000000000000000000000000004008000000000010000000000200e00000000",
      "type": "0x2",
      "transactionHash": "0xfdca7f89d14c5843e5de182b46116261d11968c103cb1544a1ae2847a03bd6ea",
      "transactionIndex": "0x61",
      "blockHash": "0x8a008fed3325ae2c88ec24125ff35da3633f191962d67d9e03d34ae12595ccb7",
      "blockNumber": "0x9fe101",
      "gasUsed": "0x8c671",
      "effectiveGasPrice": "0xf424b",
      "from": "0xe909105ad23e37b851099d1df09a28fe31624108",
      "to": "0xe03a1074c86cfedd5c142c4f04f1a1536e203543",
      "contractAddress": null
    }
  ],
  "libraries": [],
  "pending": [],
  "returns": {},
  "timestamp": 1773936062004,
  "chain": 11155111,
  "commit": null
}