{
  "transactions": [
    {
      "hash": "0xdfd8437e2548c1a039912e914fee10164f0414c20a6a53fc316c6eafae40b964",
      "transactionType": "CREATE",
      "contractName": "TestToken",
      "contractAddress": "0xc736f2ad15dd1498bcbf467e63b4982eb12c6d4d",
      "function": null,
      "arguments": [
        "TokenA",
        "TKA"
      ],
      "transaction": {
        "from": "0xe909105ad23e37b851099d1df09a28fe31624108",
        "gas": "0xb5a9f",
        "value": "0x0",
        "input": "0x608060405234801561000f575f80fd5b50604051610ba5380380610ba583398101604081905261002e9161026d565b8181600361003c8382610356565b5060046100498282610356565b5050506100663369d3c21bcecceda100000061006d60201b60201c565b5050610435565b6001600160a01b03821661009b5760405163ec442f0560e01b81525f60048201526024015b60405180910390fd5b6100a65f83836100aa565b5050565b6001600160a01b0383166100d4578060025f8282546100c99190610410565b909155506101449050565b6001600160a01b0383165f90815260208190526040902054818110156101265760405163391434e360e21b81526001600160a01b03851660048201526024810182905260448101839052606401610092565b6001600160a01b0384165f9081526020819052604090209082900390555b6001600160a01b0382166101605760028054829003905561017e565b6001600160a01b0382165f9081526020819052604090208054820190555b816001600160a01b0316836001600160a01b03167fddf252ad1be2c89b69c2b068fc378daa952ba7f163c4a11628f55a4df523b3ef836040516101c391815260200190565b60405180910390a3505050565b634e487b7160e01b5f52604160045260245ffd5b5f82601f8301126101f3575f80fd5b81516001600160401b0381111561020c5761020c6101d0565b604051601f8201601f19908116603f011681016001600160401b038111828210171561023a5761023a6101d0565b604052818152838201602001851015610251575f80fd5b8160208501602083015e5f918101602001919091529392505050565b5f806040838503121561027e575f80fd5b82516001600160401b03811115610293575f80fd5b61029f858286016101e4565b602085015190935090506001600160401b038111156102bc575f80fd5b6102c8858286016101e4565b9150509250929050565b600181811c908216806102e657607f821691505b60208210810361030457634e487b7160e01b5f52602260045260245ffd5b50919050565b601f82111561035157805f5260205f20601f840160051c8101602085101561032f5750805b601f840160051c820191505b8181101561034e575f815560010161033b565b50505b505050565b81516001600160401b0381111561036f5761036f6101d0565b6103838161037d84546102d2565b8461030a565b6020601f8211600181146103b5575f831561039e5750848201515b5f19600385901b1c1916600184901b17845561034e565b5f84815260208120601f198516915b828110156103e457878501518255602094850194600190920191016103c4565b508482101561040157868401515f19600387901b60f8161c191681555b50505050600190811b01905550565b8082018082111561042f57634e487b7160e01b5f52601160045260245ffd5b92915050565b610763806104425f395ff3fe608060405234801561000f575f80fd5b50600436106100b9575f3560e01c806340c10f191161007257806395d89b411161005857806395d89b411461016f578063a9059cbb14610177578063dd62ed3e1461018a575f80fd5b806340c10f191461013257806370a0823114610147575f80fd5b806318160ddd116100a257806318160ddd146100fe57806323b872dd14610110578063313ce56714610123575f80fd5b806306fdde03146100bd578063095ea7b3146100db575b5f80fd5b6100c56101c2565b6040516100d291906105d3565b60405180910390f35b6100ee6100e9366004610623565b610252565b60405190151581526020016100d2565b6002545b6040519081526020016100d2565b6100ee61011e36600461064b565b61026b565b604051601281526020016100d2565b610145610140366004610623565b61028e565b005b610102610155366004610685565b6001600160a01b03165f9081526020819052604090205490565b6100c561029c565b6100ee610185366004610623565b6102ab565b6101026101983660046106a5565b6001600160a01b039182165f90815260016020908152604080832093909416825291909152205490565b6060600380546101d1906106d6565b80601f01602080910402602001604051908101604052809291908181526020018280546101fd906106d6565b80156102485780601f1061021f57610100808354040283529160200191610248565b820191905f5260205f20905b81548152906001019060200180831161022b57829003601f168201915b5050505050905090565b5f3361025f8185856102b8565b60019150505b92915050565b5f336102788582856102ca565b61028385858561034a565b506001949350505050565b61029882826103a7565b5050565b6060600480546101d1906106d6565b5f3361025f81858561034a565b6102c583838360016103db565b505050565b6001600160a01b038381165f908152600160209081526040808320938616835292905220545f198114610344578181101561033657604051637dc7a0d960e11b81526001600160a01b038416600482015260248101829052604481018390526064015b60405180910390fd5b61034484848484035f6103db565b50505050565b6001600160a01b03831661037357604051634b637e8f60e11b81525f600482015260240161032d565b6001600160a01b03821661039c5760405163ec442f0560e01b81525f600482015260240161032d565b6102c58383836104ad565b6001600160a01b0382166103d05760405163ec442f0560e01b81525f600482015260240161032d565b6102985f83836104ad565b6001600160a01b0384166104045760405163e602df0560e01b81525f600482015260240161032d565b6001600160a01b03831661042d57604051634a1406b160e11b81525f600482015260240161032d565b6001600160a01b038085165f908152600160209081526040808320938716835292905220829055801561034457826001600160a01b0316846001600160a01b03167f8c5be1e5ebec7d5bd14f71427d1e84f3dd0314c0f7b2291e5b200ac8c7c3b9258460405161049f91815260200190565b60405180910390a350505050565b6001600160a01b0383166104d7578060025f8282546104cc919061070e565b909155506105479050565b6001600160a01b0383165f90815260208190526040902054818110156105295760405163391434e360e21b81526001600160a01b0385166004820152602481018290526044810183905260640161032d565b6001600160a01b0384165f9081526020819052604090209082900390555b6001600160a01b03821661056357600280548290039055610581565b6001600160a01b0382165f9081526020819052604090208054820190555b816001600160a01b0316836001600160a01b03167fddf252ad1be2c89b69c2b068fc378daa952ba7f163c4a11628f55a4df523b3ef836040516105c691815260200190565b60405180910390a3505050565b602081525f82518060208401528060208501604085015e5f604082850101526040601f19601f83011684010191505092915050565b80356001600160a01b038116811461061e575f80fd5b919050565b5f8060408385031215610634575f80fd5b61063d83610608565b946020939093013593505050565b5f805f6060848603121561065d575f80fd5b61066684610608565b925061067460208501610608565b929592945050506040919091013590565b5f60208284031215610695575f80fd5b61069e82610608565b9392505050565b5f80604083850312156106b6575f80fd5b6106bf83610608565b91506106cd60208401610608565b90509250929050565b600181811c908216806106ea57607f821691505b60208210810361070857634e487b7160e01b5f52602260045260245ffd5b50919050565b8082018082111561026557634e487b7160e01b5f52601160045260245ffdfea2646970667358221220ec06fb0c47413fd425b663292097237f2ae3e238ecf606085153eed0f3cc80c964736f6c634300081a0033000000000000000000000000000000000000000000000000000000000000004000000000000000000000000000000000000000000000000000000000000000800000000000000000000000000000000000000000000000000000000000000006546f6b656e4100000000000000000000000000000000000000000000000000000000000000000000000000000000000000000000000000000000000000000003544b410000000000000000000000000000000000000000000000000000000000",
        "nonce": "0x10f",
        "chainId": "0xaa36a7"
      },
      "additionalContracts": [],
      "isFixedGasLimit": false
    },
    {
      "hash": "0xd9a8a85713c9a7c220e4599184c1bc64e8e4d4795384f5aa1fedfb1a363ae903",
      "transactionType": "CREATE",
      "contractName": "TestToken",
      "contractAddress": "0x4b6b42a1a98801abd47b22229da7c4e89a213b2e",
      "function": null,
      "arguments": [
        "TokenB",
        "TKB"
      ],
      "transaction": {
        "from": "0xe909105ad23e37b851099d1df09a28fe31624108",
        "gas": "0xb5a9f",
        "value": "0x0",
        "input": "0x608060405234801561000f575f80fd5b50604051610ba5380380610ba583398101604081905261002e9161026d565b8181600361003c8382610356565b5060046100498282610356565b5050506100663369d3c21bcecceda100000061006d60201b60201c565b5050610435565b6001600160a01b03821661009b5760405163ec442f0560e01b81525f60048201526024015b60405180910390fd5b6100a65f83836100aa565b5050565b6001600160a01b0383166100d4578060025f8282546100c99190610410565b909155506101449050565b6001600160a01b0383165f90815260208190526040902054818110156101265760405163391434e360e21b81526001600160a01b03851660048201526024810182905260448101839052606401610092565b6001600160a01b0384165f9081526020819052604090209082900390555b6001600160a01b0382166101605760028054829003905561017e565b6001600160a01b0382165f9081526020819052604090208054820190555b816001600160a01b0316836001600160a01b03167fddf252ad1be2c89b69c2b068fc378daa952ba7f163c4a11628f55a4df523b3ef836040516101c391815260200190565b60405180910390a3505050565b634e487b7160e01b5f52604160045260245ffd5b5f82601f8301126101f3575f80fd5b81516001600160401b0381111561020c5761020c6101d0565b604051601f8201601f19908116603f011681016001600160401b038111828210171561023a5761023a6101d0565b604052818152838201602001851015610251575f80fd5b8160208501602083015e5f918101602001919091529392505050565b5f806040838503121561027e575f80fd5b82516001600160401b03811115610293575f80fd5b61029f858286016101e4565b602085015190935090506001600160401b038111156102bc575f80fd5b6102c8858286016101e4565b9150509250929050565b600181811c908216806102e657607f821691505b60208210810361030457634e487b7160e01b5f52602260045260245ffd5b50919050565b601f82111561035157805f5260205f20601f840160051c8101602085101561032f5750805b601f840160051c820191505b8181101561034e575f815560010161033b565b50505b505050565b81516001600160401b0381111561036f5761036f6101d0565b6103838161037d84546102d2565b8461030a565b6020601f8211600181146103b5575f831561039e5750848201515b5f19600385901b1c1916600184901b17845561034e565b5f84815260208120601f198516915b828110156103e457878501518255602094850194600190920191016103c4565b508482101561040157868401515f19600387901b60f8161c191681555b50505050600190811b01905550565b8082018082111561042f57634e487b7160e01b5f52601160045260245ffd5b92915050565b610763806104425f395ff3fe608060405234801561000f575f80fd5b50600436106100b9575f3560e01c806340c10f191161007257806395d89b411161005857806395d89b411461016f578063a9059cbb14610177578063dd62ed3e1461018a575f80fd5b806340c10f191461013257806370a0823114610147575f80fd5b806318160ddd116100a257806318160ddd146100fe57806323b872dd14610110578063313ce56714610123575f80fd5b806306fdde03146100bd578063095ea7b3146100db575b5f80fd5b6100c56101c2565b6040516100d291906105d3565b60405180910390f35b6100ee6100e9366004610623565b610252565b60405190151581526020016100d2565b6002545b6040519081526020016100d2565b6100ee61011e36600461064b565b61026b565b604051601281526020016100d2565b610145610140366004610623565b61028e565b005b610102610155366004610685565b6001600160a01b03165f9081526020819052604090205490565b6100c561029c565b6100ee610185366004610623565b6102ab565b6101026101983660046106a5565b6001600160a01b039182165f90815260016020908152604080832093909416825291909152205490565b6060600380546101d1906106d6565b80601f01602080910402602001604051908101604052809291908181526020018280546101fd906106d6565b80156102485780601f1061021f57610100808354040283529160200191610248565b820191905f5260205f20905b81548152906001019060200180831161022b57829003601f168201915b5050505050905090565b5f3361025f8185856102b8565b60019150505b92915050565b5f336102788582856102ca565b61028385858561034a565b506001949350505050565b61029882826103a7565b5050565b6060600480546101d1906106d6565b5f3361025f81858561034a565b6102c583838360016103db565b505050565b6001600160a01b038381165f908152600160209081526040808320938616835292905220545f198114610344578181101561033657604051637dc7a0d960e11b81526001600160a01b038416600482015260248101829052604481018390526064015b60405180910390fd5b61034484848484035f6103db565b50505050565b6001600160a01b03831661037357604051634b637e8f60e11b81525f600482015260240161032d565b6001600160a01b03821661039c5760405163ec442f0560e01b81525f600482015260240161032d565b6102c58383836104ad565b6001600160a01b0382166103d05760405163ec442f0560e01b81525f600482015260240161032d565b6102985f83836104ad565b6001600160a01b0384166104045760405163e602df0560e01b81525f600482015260240161032d565b6001600160a01b03831661042d57604051634a1406b160e11b81525f600482015260240161032d565b6001600160a01b038085165f908152600160209081526040808320938716835292905220829055801561034457826001600160a01b0316846001600160a01b03167f8c5be1e5ebec7d5bd14f71427d1e84f3dd0314c0f7b2291e5b200ac8c7c3b9258460405161049f91815260200190565b60405180910390a350505050565b6001600160a01b0383166104d7578060025f8282546104cc919061070e565b909155506105479050565b6001600160a01b0383165f90815260208190526040902054818110156105295760405163391434e360e21b81526001600160a01b0385166004820152602481018290526044810183905260640161032d565b6001600160a01b0384165f9081526020819052604090209082900390555b6001600160a01b03821661056357600280548290039055610581565b6001600160a01b0382165f9081526020819052604090208054820190555b816001600160a01b0316836001600160a01b03167fddf252ad1be2c89b69c2b068fc378daa952ba7f163c4a11628f55a4df523b3ef836040516105c691815260200190565b60405180910390a3505050565b602081525f82518060208401528060208501604085015e5f604082850101526040601f19601f83011684010191505092915050565b80356001600160a01b038116811461061e575f80fd5b919050565b5f8060408385031215610634575f80fd5b61063d83610608565b946020939093013593505050565b5f805f6060848603121561065d575f80fd5b61066684610608565b925061067460208501610608565b929592945050506040919091013590565b5f60208284031215610695575f80fd5b61069e82610608565b9392505050565b5f80604083850312156106b6575f80fd5b6106bf83610608565b91506106cd60208401610608565b90509250929050565b600181811c908216806106ea57607f821691505b60208210810361070857634e487b7160e01b5f52602260045260245ffd5b50919050565b8082018082111561026557634e487b7160e01b5f52601160045260245ffdfea2646970667358221220ec06fb0c47413fd425b663292097237f2ae3e238ecf606085153eed0f3cc80c964736f6c634300081a0033000000000000000000000000000000000000000000000000000000000000004000000000000000000000000000000000000000000000000000000000000000800000000000000000000000000000000000000000000000000000000000000006546f6b656e4200000000000000000000000000000000000000000000000000000000000000000000000000000000000000000000000000000000000000000003544b420000000000000000000000000000000000000000000000000000000000",
        "nonce": "0x110",
        "chainId": "0xaa36a7"
      },
      "additionalContracts": [],
      "isFixedGasLimit": false
    },
    {
      "hash": "0x9e20a8e3bdc54bff7096c0156c1c919ef31f3dc14d5d4261ea72cc8af5c3943a",
      "transactionType": "CALL",
      "contractName": "TestToken",
      "contractAddress": "0xc736f2ad15dd1498bcbf467e63b4982eb12c6d4d",
      "function": "mint(address,uint256)",
      "arguments": [
        "0xE909105aD23e37b851099d1dF09A28Fe31624108",
        "100000000000000000000"
      ],
      "transaction": {
        "from": "0xe909105ad23e37b851099d1df09a28fe31624108",
        "to": "0xc736f2ad15dd1498bcbf467e63b4982eb12c6d4d",
        "gas": "0xc3ab",
        "value": "0x0",
        "input": "0x40c10f19000000000000000000000000e909105ad23e37b851099d1df09a28fe316241080000000000000000000000000000000000000000000000056bc75e2d63100000",
        "nonce": "0x111",
        "chainId": "0xaa36a7"
      },
      "additionalContracts": [],
      "isFixedGasLimit": false
    },
    {
      "hash": "0x6d15e2a84b8ed473a0ff548f2b931d02d7f8a270358b951c00f162797a37c63a",
      "transactionType": "CALL",
      "contractName": "TestToken",
      "contractAddress": "0x4b6b42a1a98801abd47b22229da7c4e89a213b2e",
      "function": "mint(address,uint256)",
      "arguments": [
        "0xE909105aD23e37b851099d1dF09A28Fe31624108",
        "100000000000000000000"
      ],
      "transaction": {
        "from": "0xe909105ad23e37b851099d1df09a28fe31624108",
        "to": "0x4b6b42a1a98801abd47b22229da7c4e89a213b2e",
        "gas": "0xc3ab",
        "value": "0x0",
        "input": "0x40c10f19000000000000000000000000e909105ad23e37b851099d1df09a28fe316241080000000000000000000000000000000000000000000000056bc75e2d63100000",
        "nonce": "0x112",
        "chainId": "0xaa36a7"
      },
      "additionalContracts": [],
      "isFixedGasLimit": false
    },
    {
      "hash": "0x8c16271071344511bf35fb6196a9a776f53644658ea93416b67572dbc6f24baf",
      "transactionType": "CALL",
      "contractName": "TestToken",
      "contractAddress": "0xc736f2ad15dd1498bcbf467e63b4982eb12c6d4d",
      "function": "approve(address,uint256)",
      "arguments": [
        "0xE03A1074c86CFeDd5C142C4F04F1a1536e203543",
        "115792089237316195423570985008687907853269984665640564039457584007913129639935"
      ],
      "transaction": {
        "from": "0xe909105ad23e37b851099d1df09a28fe31624108",
        "to": "0xc736f2ad15dd1498bcbf467e63b4982eb12c6d4d",
        "gas": "0xfbfa",
        "value": "0x0",
        "input": "0x095ea7b3000000000000000000000000e03a1074c86cfedd5c142c4f04f1a1536e203543ffffffffffffffffffffffffffffffffffffffffffffffffffffffffffffffff",
        "nonce": "0x113",
        "chainId": "0xaa36a7"
      },
      "additionalContracts": [],
      "isFixedGasLimit": false
    },
    {
      "hash": "0x1c63a792df791e55ca60a4946f39c39ec4cb190cfd7e67c1362dd066f04f8e02",
      "transactionType": "CALL",
      "contractName": "TestToken",
      "contractAddress": "0x4b6b42a1a98801abd47b22229da7c4e89a213b2e",
      "function": "approve(address,uint256)",
      "arguments": [
        "0xE03A1074c86CFeDd5C142C4F04F1a1536e203543",
        "115792089237316195423570985008687907853269984665640564039457584007913129639935"
      ],
      "transaction": {
        "from": "0xe909105ad23e37b851099d1df09a28fe31624108",
        "to": "0x4b6b42a1a98801abd47b22229da7c4e89a213b2e",
        "gas": "0xfbfa",
        "value": "0x0",
        "input": "0x095ea7b3000000000000000000000000e03a1074c86cfedd5c142c4f04f1a1536e203543ffffffffffffffffffffffffffffffffffffffffffffffffffffffffffffffff",
        "nonce": "0x114",
        "chainId": "0xaa36a7"
      },
      "additionalContracts": [],
      "isFixedGasLimit": false
    },
    {
      "hash": "0xde9d38e3446385ad29dba419daa4d988a4101235a5e50aaf614366365c8d808b",
      "transactionType": "CALL",
      "contractName": null,
      "contractAddress": "0xe03a1074c86cfedd5c142c4f04f1a1536e203543",
      "function": "initialize((address,address,uint24,int24,address),uint160)",
      "arguments": [
        "(0x4b6B42a1a98801abD47B22229DA7C4E89A213B2E, 0xc736F2ad15Dd1498BcBf467e63B4982eB12C6d4D, 8388608, 60, 0x1387bb54fb1f85f4B99b637F9ec36ca645D87888)",
        "79228162514264337593543950336"
      ],
      "transaction": {
        "from": "0xe909105ad23e37b851099d1df09a28fe31624108",
        "to": "0xe03a1074c86cfedd5c142c4f04f1a1536e203543",
        "gas": "0xcd56b",
        "value": "0x0",
        "input": "0x6276cbbe0000000000000000000000004b6b42a1a98801abd47b22229da7c4e89a213b2e000000000000000000000000c736f2ad15dd1498bcbf467e63b4982eb12c6d4d0000000000000000000000000000000000000000000000000000000000800000000000000000000000000000000000000000000000000000000000000000003c0000000000000000000000001387bb54fb1f85f4b99b637f9ec36ca645d878880000000000000000000000000000000000000001000000000000000000000000",
        "nonce": "0x115",
        "chainId": "0xaa36a7"
      },
      "additionalContracts": [],
      "isFixedGasLimit": false
    }
  ],
  "receipts": [
    {
      "status": "0x1",
      "cumulativeGasUsed": "0x92e652",
      "logs": [
        {
          "address": "0xc736f2ad15dd1498bcbf467e63b4982eb12c6d4d",
          "topics": [
            "0xddf252ad1be2c89b69c2b068fc378daa952ba7f163c4a11628f55a4df523b3ef",
            "0x0000000000000000000000000000000000000000000000000000000000000000",
            "0x000000000000000000000000e909105ad23e37b851099d1df09a28fe31624108"
          ],
          "data": "0x00000000000000000000000000000000000000000000d3c21bcecceda1000000",
          "blockHash": "0x6d3cb5a86f7f9b953af8293a64cab28207f9e44672945340204738c95db750e1",
          "blockNumber": "0x9fe173",
          "blockTimestamp": "0x69bc2338",
          "transactionHash": "0xdfd8437e2548c1a039912e914fee10164f0414c20a6a53fc316c6eafae40b964",
          "transactionIndex": "0x4d",
          "logIndex": "0x91",
          "removed": false
        }
      ],
      "logsBloom": "0x00000000000000000000000000000000000000000000000000000000000000000000000000100000000000000000000000000000000000000000100000000000000000000000000000000008000000000000000000000000000000000000000000000008020000000000000000000800000000000000000000000010000000000000000000000000000000000000000000000000000000000000008000000000000000000000000000000000000000000000000000800000000000000000000000000002000000000000000000000000000000000000000000000000000020100000000000000000000000000000000000000000000000000000000000000000",
      "type": "0x2",
      "transactionHash": "0xdfd8437e2548c1a039912e914fee10164f0414c20a6a53fc316c6eafae40b964",
      "transactionIndex": "0x4d",
      "blockHash": "0x6d3cb5a86f7f9b953af8293a64cab28207f9e44672945340204738c95db750e1",
      "blockNumber": "0x9fe173",
      "gasUsed": "0x8bbdd",
      "effectiveGasPrice": "0xf4249",
      "from": "0xe909105ad23e37b851099d1df09a28fe31624108",
      "to": null,
      "contractAddress": "0xc736f2ad15dd1498bcbf467e63b4982eb12c6d4d"
    },
    {
      "status": "0x1",
      "cumulativeGasUsed": "0x809930",
      "logs": [
        {
          "address": "0x4b6b42a1a98801abd47b22229da7c4e89a213b2e",
          "topics": [
            "0xddf252ad1be2c89b69c2b068fc378daa952ba7f163c4a11628f55a4df523b3ef",
            "0x0000000000000000000000000000000000000000000000000000000000000000",
            "0x000000000000000000000000e909105ad23e37b851099d1df09a28fe31624108"
          ],
          "data": "0x00000000000000000000000000000000000000000000d3c21bcecceda1000000",
          "blockHash": "0x2dedfc60bd1289bd16bdf63abef632e2c04c1151072f691e629459853c83c4a5",
          "blockNumber": "0x9fe174",
          "blockTimestamp": "0x69bc2344",
          "transactionHash": "0xd9a8a85713c9a7c220e4599184c1bc64e8e4d4795384f5aa1fedfb1a363ae903",
          "transactionIndex": "0x50",
          "logIndex": "0x97",
          "removed": false
        }
      ],
      "logsBloom": "0x00000000000000000000000000000000000000000000000000000000000000000000000040100000000000000000000000000000000000000000000000000000000000000000000000000008000000000000000000000000000000200000000000000008020000000000000000000800000000000000000000000010000000000800000000000000000000000000000000000000000000000000000000000000000000000000000000000000000000000000000000000000000000000000000000000002000000000000000000000000000000000000000000000000000020100000000000000000000000000000000000000000000000000000000000000000",
      "type": "0x2",
      "transactionHash": "0xd9a8a85713c9a7c220e4599184c1bc64e8e4d4795384f5aa1fedfb1a363ae903",
      "transactionIndex": "0x50",
      "blockHash": "0x2dedfc60bd1289bd16bdf63abef632e2c04c1151072f691e629459853c83c4a5",
      "blockNumber": "0x9fe174",
      "gasUsed": "0x8bbdd",
      "effectiveGasPrice": "0xf4249",
      "from": "0xe909105ad23e37b851099d1df09a28fe31624108",
      "to": null,
      "contractAddress": "0x4b6b42a1a98801abd47b22229da7c4e89a213b2e"
    },
    {
      "status": "0x1",
      "cumulativeGasUsed": "0x8a1f40",
      "logs": [
        {
          "address": "0xc736f2ad15dd1498bcbf467e63b4982eb12c6d4d",
          "topics": [
            "0xddf252ad1be2c89b69c2b068fc378daa952ba7f163c4a11628f55a4df523b3ef",
            "0x0000000000000000000000000000000000000000000000000000000000000000",
            "0x000000000000000000000000e909105ad23e37b851099d1df09a28fe31624108"
          ],
          "data": "0x0000000000000000000000000000000000000000000000056bc75e2d63100000",
          "blockHash": "0x829c8dc0b60d84c63da78afa5f6f249935b6b647d5b36cf1b23f80068f3698c3",
          "blockNumber": "0x9fe175",
          "blockTimestamp": "0x69bc2350",
          "transactionHash": "0x9e20a8e3bdc54bff7096c0156c1c919ef31f3dc14d5d4261ea72cc8af5c3943a",
          "transactionIndex": "0x46",
          "logIndex": "0x79",
          "removed": false
        }
      ],
      "logsBloom": "0x00000000000000000000000000000000000000000000000000000000000000000000000000100000000000000000000000000000000000000000100000000000000000000000000000000008000000000000000000000000000000000000000000000008020000000000000000000800000000000000000000000010000000000000000000000000000000000000000000000000000000000000008000000000000000000000000000000000000000000000000000800000000000000000000000000002000000000000000000000000000000000000000000000000000020100000000000000000000000000000000000000000000000000000000000000000",
      "type": "0x2",
      "transactionHash": "0x9e20a8e3bdc54bff7096c0156c1c919ef31f3dc14d5d4261ea72cc8af5c3943a",
      "transactionIndex": "0x46",
      "blockHash": "0x829c8dc0b60d84c63da78afa5f6f249935b6b647d5b36cf1b23f80068f3698c3",
      "blockNumber": "0x9fe175",
      "gasUsed": "0x85cb",
      "effectiveGasPrice": "0xf4249",
      "from": "0xe909105ad23e37b851099d1df09a28fe31624108",
      "to": "0xc736f2ad15dd1498bcbf467e63b4982eb12c6d4d",
      "contractAddress": null
    },
    {
      "status": "0x1",
      "cumulativeGasUsed": "0x6148dc",
      "logs": [
        {
          "address": "0x4b6b42a1a98801abd47b22229da7c4e89a213b2e",
          "topics": [
            "0xddf252ad1be2c89b69c2b068fc378daa952ba7f163c4a11628f55a4df523b3ef",
            "0x0000000000000000000000000000000000000000000000000000000000000000",
            "0x000000000000000000000000e909105ad23e37b851099d1df09a28fe31624108"
          ],
          "data": "0x0000000000000000000000000000000000000000000000056bc75e2d63100000",
          "blockHash": "0xfc977e9a3a3ab7a5218dde3adaeac2dfe5198c8b8f1efae844f146f58c065694",
          "blockNumber": "0x9fe176",
          "blockTimestamp": "0x69bc235c",
          "transactionHash": "0x6d15e2a84b8ed473a0ff548f2b931d02d7f8a270358b951c00f162797a37c63a",
          "transactionIndex": "0x51",
          "logIndex": "0x82",
          "removed": false
        }
      ],
      "logsBloom": "0x00000000000000000000000000000000000000000000000000000000000000000000000040100000000000000000000000000000000000000000000000000000000000000000000000000008000000000000000000000000000000200000000000000008020000000000000000000800000000000000000000000010000000000800000000000000000000000000000000000000000000000000000000000000000000000000000000000000000000000000000000000000000000000000000000000002000000000000000000000000000000000000000000000000000020100000000000000000000000000000000000000000000000000000000000000000",
      "type": "0x2",
      "transactionHash": "0x6d15e2a84b8ed473a0ff548f2b931d02d7f8a270358b951c00f162797a37c63a",
      "transactionIndex": "0x51",
      "blockHash": "0xfc977e9a3a3ab7a5218dde3adaeac2dfe5198c8b8f1efae844f146f58c065694",
      "blockNumber": "0x9fe176",
      "gasUsed": "0x85cb",
      "effectiveGasPrice": "0xf4249",
      "from": "0xe909105ad23e37b851099d1df09a28fe31624108",
      "to": "0x4b6b42a1a98801abd47b22229da7c4e89a213b2e",
      "contractAddress": null
    },
    {
      "status": "0x1",
      "cumulativeGasUsed": "0x8013fa",
      "logs": [
        {
          "address": "0xc736f2ad15dd1498bcbf467e63b4982eb12c6d4d",
          "topics": [
            "0x8c5be1e5ebec7d5bd14f71427d1e84f3dd0314c0f7b2291e5b200ac8c7c3b925",
            "0x000000000000000000000000e909105ad23e37b851099d1df09a28fe31624108",
            "0x000000000000000000000000e03a1074c86cfedd5c142c4f04f1a1536e203543"
          ],
          "data": "0xffffffffffffffffffffffffffffffffffffffffffffffffffffffffffffffff",
          "blockHash": "0x35aecc1d7fc129eaffa707f9d56a293cdb137b39771c996bb9729e1cfae25d23",
          "blockNumber": "0x9fe177",
          "blockTimestamp": "0x69bc2368",
          "transactionHash": "0x8c16271071344511bf35fb6196a9a776f53644658ea93416b67572dbc6f24baf",
          "transactionIndex": "0x59",
          "logIndex": "0x8a",
          "removed": false
        }
      ],
      "logsBloom": "0x00000000000000000000000000000000000000000000000000000000000000000000000000100000000000000000000000000000000000000000100000200000000000000000000000000000000000000000000000000000000000000000000000000008000000000000000080000000000000000000000000000000000000000000000000000000000010000000000000000000000000000000008000000000020000000000000000000000000000000000000000800000000000000000000000000000000000000000000000000000000000000000000000001000000000100010000000000000000000000000000000000000000000000000000000000000",
      "type": "0x2",
      "transactionHash": "0x8c16271071344511bf35fb6196a9a776f53644658ea93416b67572dbc6f24baf",
      "transactionIndex": "0x59",
      "blockHash": "0x35aecc1d7fc129eaffa707f9d56a293cdb137b39771c996bb9729e1cfae25d23",
      "blockNumber": "0x9fe177",
      "gasUsed": "0xb66e",
      "effectiveGasPrice": "0xf4249",
      "from": "0xe909105ad23e37b851099d1df09a28fe31624108",
      "to": "0xc736f2ad15dd1498bcbf467e63b4982eb12c6d4d",
      "contractAddress": null
    },
    {
      "status": "0x1",
      "cumulativeGasUsed": "0xc2a099",
      "logs": [
        {
          "address": "0x4b6b42a1a98801abd47b22229da7c4e89a213b2e",
          "topics": [
            "0x8c5be1e5ebec7d5bd14f71427d1e84f3dd0314c0f7b2291e5b200ac8c7c3b925",
            "0x000000000000000000000000e909105ad23e37b851099d1df09a28fe31624108",
            "0x000000000000000000000000e03a1074c86cfedd5c142c4f04f1a1536e203543"
          ],
          "data": "0xffffffffffffffffffffffffffffffffffffffffffffffffffffffffffffffff",
          "blockHash": "0x5af181cbf46d16cc4b37e310db5c7a5d0d4d2ebc152cc821a48423268b4a28e0",
          "blockNumber": "0x9fe178",
          "blockTimestamp": "0x69bc2374",
          "transactionHash": "0x1c63a792df791e55ca60a4946f39c39ec4cb190cfd7e67c1362dd066f04f8e02",
          "transactionIndex": "0x6b",
          "logIndex": "0xbe",
          "removed": false
        }
      ],
      "logsBloom": "0x00000000000000000000000000000000000000000000000000000000000000000000000040100000000000000000000000000000000000000000000000200000000000000000000000000000000000000000000000000000000000200000000000000008000000000000000080000000000000000000000000000000000000000800000000000000000010000000000000000000000000000000000000000000020000000000000000000000000000000000000000000000000000000000000000000000000000000000000000000000000000000000000000001000000000100010000000000000000000000000000000000000000000000000000000000000",
      "type": "0x2",
      "transactionHash": "0x1c63a792df791e55ca60a4946f39c39ec4cb190cfd7e67c1362dd066f04f8e02",
      "transactionIndex": "0x6b",
      "blockHash": "0x5af181cbf46d16cc4b37e310db5c7a5d0d4d2ebc152cc821a48423268b4a28e0",
      "blockNumber": "0x9fe178",
      "gasUsed": "0xb66e",
      "effectiveGasPrice": "0xf4249",
      "from": "0xe909105ad23e37b851099d1df09a28fe31624108",
      "to": "0x4b6b42a1a98801abd47b22229da7c4e89a213b2e",
      "contractAddress": null
    },
    {
      "status": "0x1",
      "cumulativeGasUsed": "0x967609",
      "logs": [
        {
          "address": "0xe03a1074c86cfedd5c142c4f04f1a1536e203543",
          "topics": [
            "0xdd466e674ea557f56295e2d0218a125ea4b4f0f6f3307b95f85e6110838d6438",
            "0xe057db34d7bf43b3e03d7d7b7c37aec6101ffb7e3c3767897db5c2d6c90a88bd",
            "0x0000000000000000000000004b6b42a1a98801abd47b22229da7c4e89a213b2e",
            "0x000000000000000000000000c736f2ad15dd1498bcbf467e63b4982eb12c6d4d"
          ],
          "data": "0x0000000000000000000000000000000000000000000000000000000000800000000000000000000000000000000000000000000000000000000000000000003c0000000000000000000000001387bb54fb1f85f4b99b637f9ec36ca645d8788800000000000000000000000000000000000000010000000000000000000000000000000000000000000000000000000000000000000000000000000000000000",
          "blockHash": "0x6b151d8bcf31fbfa584506e79846df562cde272b3b51eec2e652c2296fc26dd8",
          "blockNumber": "0x9fe179",
          "blockTimestamp": "0x69bc2380",
          "transactionHash": "0xde9d38e3446385ad29dba419daa4d988a4101235a5e50aaf614366365c8d808b",
          "transactionIndex": "0x3f",
          "logIndex": "0x5a",
          "removed": false
        },
        {
          "address": "0x9acc1180b4536e51917cf7de17306fb04d0e22c5",
          "topics": [
            "0xa3b98146d3ebae54df156862de54619aba184a59c534ecf3084db78390d79e8e",
            "0xdbc6857e50a8d4b37ae3f49f6f164ebaeb73ef33a4f33272eb6c6ec38a46a250",
            "0x0000000000000000000000001387bb54fb1f85f4b99b637f9ec36ca645d87888",
            "0x0000000000000000000000001387bb54fb1f85f4b99b637f9ec36ca645d87888"
          ],
          "data": "0x0000000000000000000000004b6b42a1a98801abd47b22229da7c4e89a213b2e",
          "blockHash": "0x6b151d8bcf31fbfa584506e79846df562cde272b3b51eec2e652c2296fc26dd8",
          "blockNumber": "0x9fe179",
          "blockTimestamp": "0x69bc2380",
          "transactionHash": "0xde9d38e3446385ad29dba419daa4d988a4101235a5e50aaf614366365c8d808b",
          "transactionIndex": "0x3f",
          "logIndex": "0x5b",
          "removed": false
        },
        {
          "address": "0x1387bb54fb1f85f4b99b637f9ec36ca645d87888",
          "topics": [
            "0xd6c9456e1d1f149222b8c3529360bd6aa175d60db8227a3900b86d755d16022b",
            "0x0000000000000000000000004b6b42a1a98801abd47b22229da7c4e89a213b2e"
          ],
          "data": "0xdbc6857e50a8d4b37ae3f49f6f164ebaeb73ef33a4f33272eb6c6ec38a46a250",
          "blockHash": "0x6b151d8bcf31fbfa584506e79846df562cde272b3b51eec2e652c2296fc26dd8",
          "blockNumber": "0x9fe179",
          "blockTimestamp": "0x69bc2380",
          "transactionHash": "0xde9d38e3446385ad29dba419daa4d988a4101235a5e50aaf614366365c8d808b",
          "transactionIndex": "0x3f",
          "logIndex": "0x5c",
          "removed": false
        },
        {
          "address": "0x9acc1180b4536e51917cf7de17306fb04d0e22c5",
          "topics": [
            "0xa3b98146d3ebae54df156862de54619aba184a59c534ecf3084db78390d79e8e",
            "0xbea2e3ec3edf5504a21db485187f530038d7d1758724c464cb7419ce4c879864",
            "0x0000000000000000000000001387bb54fb1f85f4b99b637f9ec36ca645d87888",
            "0x0000000000000000000000001387bb54fb1f85f4b99b637f9ec36ca645d87888"
          ],
          "data": "0x000000000000000000000000c736f2ad15dd1498bcbf467e63b4982eb12c6d4d",
          "blockHash": "0x6b151d8bcf31fbfa584506e79846df562cde272b3b51eec2e652c2296fc26dd8",
          "blockNumber": "0x9fe179",
          "blockTimestamp": "0x69bc2380",
          "transactionHash": "0xde9d38e3446385ad29dba419daa4d988a4101235a5e50aaf614366365c8d808b",
          "transactionIndex": "0x3f",
          "logIndex": "0x5d",
          "removed": false
        },
        {
          "address": "0x1387bb54fb1f85f4b99b637f9ec36ca645d87888",
          "topics": [
            "0xd6c9456e1d1f149222b8c3529360bd6aa175d60db8227a3900b86d755d16022b",
            "0x000000000000000000000000c736f2ad15dd1498bcbf467e63b4982eb12c6d4d"
          ],
          "data": "0xbea2e3ec3edf5504a21db485187f530038d7d1758724c464cb7419ce4c879864",
          "blockHash": "0x6b151d8bcf31fbfa584506e79846df562cde272b3b51eec2e652c2296fc26dd8",
          "blockNumber": "0x9fe179",
          "blockTimestamp": "0x69bc2380",
          "transactionHash": "0xde9d38e3446385ad29dba419daa4d988a4101235a5e50aaf614366365c8d808b",
          "transactionIndex": "0x3f",
          "logIndex": "0x5e",
          "removed": false
        }
      ],
      "logsBloom": "0x00000000000000000000000000000000000000001000000000000000000100200000000000000020000000010000000000000100000000000000200000000000000800000000000000000000000000002800000000000000000000000000080000000000000000000000800000000000820000000000100000000001000200000000010008000008000020000000000000000001000000000000000000200000000000000000000000000000000000000200000000000000000000000002040000000020000000010000000040000000000000400020000000000200000000011000000000000000000000000000000000000000000000000000000c00000000",
      "type": "0x2",
      "transactionHash": "0xde9d38e3446385ad29dba419daa4d988a4101235a5e50aaf614366365c8d808b",
      "transactionIndex": "0x3f",
      "blockHash": "0x6b151d8bcf31fbfa584506e79846df562cde272b3b51eec2e652c2296fc26dd8",
      "blockNumber": "0x9fe179",
      "gasUsed": "0x8c671",
      "effectiveGasPrice": "0xf4249",
      "from": "0xe909105ad23e37b851099d1df09a28fe31624108",
      "to": "0xe03a1074c86cfedd5c142c4f04f1a1536e203543",
      "contractAddress": null
    }
  ],
  "libraries": [],
  "pending": [],
  "returns": {},
  "timestamp": 1773937561474,
  "chain": 11155111,
  "commit": null
}